:020000040000FA
:0600000002010702205876
:03002B000224A705
:030033000224891B
:03004B000224C8C4
:030053000220CEBA
:03006B0002246309
:10008300021F07E5C754F84401F5C77901220000B0
:100093000080FB120086B900030200F1E4792178A5
:1000A30008B800028004F709D8FCE479297802B87B
:1000B30000028004F709D8FCE490028178F77907FD
:1000C3008002F0A3D8FCD9FA7A777B0990013778BC
:1000D3000279048015E493A3AD82AE838A828B8375
:1000E300F0A3AA82AB838D828E83D8E9D9E7758288
:1000F300A57583FF740212011975829175830074CB
:100103000012011975D00075813F751881751902A8
:10011300759F00020096C09FF59FE473D09F22D085
:1001230083D082C09FE493C0E0740193C0E0740263
:1001330093F59F22FF0000B4000028002800283018
:1001430075A000A000A000A00000080008E001F0D6
:10015300001000100010001000100010005000509C
:1001630000500010001000D0070000000000000F36
:100173000001000500307507001000010081FF0039
:10018300000000FF360654063C06FF020202080286
:100193005000A0000000E8030295900100007A904F
:1001A300029190010000CE0902BD90010000B3024C
:1001B300029190010000CF09028390010000C9025F
:1001C300029190010000D009028590010000CB024A
:1001D300029190010000D109028790080000CC022F
:1001E300029190010000D209028990010000D30915
:1001F300FF0100FF200295900100007D9002919085
:10020300010000370A028B900000000000028D906D
:100213000300001903720C720C720C720C720C72D4
:100223000C720C720C720C720C720C720C720C4805
:100233000F600F420FFFFF020202020202020202DC
:10024300010D000000100102959001000080900252
:1002530091900100007A0A02AD900100005D07024F
:1002630091900100007B0A02AB90010000688F02AD
:1002730091900100007C0A02A7900100003F8F02C9
:1002830091900100007D0A02A590010000CB8E022F
:1002930091900100007E0A02A390010000A78E0244
:1002A30091900100007F0A02A190010000958E0247
:1002B3009190010000800A029F90010000B98E0214
:1002C3009190010000810A029D900100004D8F0270
:1002D3009190010000820A029B90010000830A01B1
:1002E300E803053F100AFF00013075030201060011
:1002F30000000000000000000000000000000000FB
:100303000000000000000000000000FFFF06008066
:100313000CE803140953696D706C65424C455065D4
:10032300726970686572616C051207000700020A42
:10033300000201060302F0FF53696D706C652042F1
:100343004C45205065726970686572616C86130054
:10035300009E130A43686172616374657269737402
:100363006963203100024368617261637465726975
:100373007374696320320008436861726163746552
:100383007269737469632033001043686172616337
:10039300746572697374696320340002436861721F
:1003A30061637465726973746963203500029590A3
:1003B3000100007790029190010000960B02B59026
:1003C3000300005909028F90010000970B029190DE
:1003D300010000A80B02B7900100005A09028F9098
:1003E300010000A90B029190010000BA0B02B99021
:1003F3000200005B09028F90010000BB0B02919089
:10040300010000CC0B02BB900000005C09028D9040
:100413000300006C09028F90010000CD0B02919044
:10042300010000DE0B02B1900100007209028F90FF
:10043300010000DF0B120122368A031201224D8ACA
:10044300031201227E8A03120122B98A03120122B6
:10045300E38A031201220D8B03120122248B031260
:1004630001223B8B03120122528B031201227B8B4D
:10047300031201228E8B03120122A48B0312012289
:10048300B78B03120122DE8B0312012201980212A1
:1004930001220599021201223D990212012260995B
:1004A300021201226B99021201228E990212012279
:1004B3009D9A02120122729B02120122ED9B0212EB
:1004C3000122759C02120122B09C02120122E79CB8
:1004D30002120122759D021201224E9E0212012276
:1004E300AE9E02120122B99E02120122389F02120D
:1004F30001223B9F021201223E9F02120122CD9F45
:1005030002120122D09F0212012200A00212012234
:100513002AA00212012218A102120122CAA1021268
:1005230001225BE10212012283E102120122B1E105
:1005330002120122E8E10212012246E20212012222
:1005430091E202120122DCE2021201221CE30212F6
:10055300012262E30212012290E3021201224DE41E
:100563000212012257E40212012264E40212012260
:1005730097E40212012263E5021201226FE50212DF
:10058300012287E50212012291E5021201228797D7
:1005930003120122959703120122AD970312012240
:1005A300C59703120122E1B0011201228DB101129C
:1005B300012208B20112012229B30112012265B3FB
:1005C300011201220EB401120122F5B4011201221B
:1005D30059B601120122B0B60112012231B701123C
:1005E300012221B8011201226EB801120122F4B8CE
:1005F3000112012226B9011201223ABB0112012282
:100603007CBB011201229ABB011201221DBC011203
:100613000122F1BC01120122B9BD011201229A7813
:10062300001201226D7900120122167A00120122B2
:10063300697A00120122197B00120122A57B0012A4
:100643000122917C00120122C07C00120122D37D81
:10065300001201221B7E00120122F07E00120122F1
:100663002C7F00120122487F00120122589A0312A4
:10067300012233F20212012249F2021201226FF225
:10068300021201228BF30212012295F302120122BC
:10069300CAF402120122C2F5021201229DD20212F1
:1006A3000122CDD30212012200D4021201224AD424
:1006B3000212012211D602120122F2A0011201221A
:1006C3005CA101120122BBA201120122CBA20112E1
:1006D3000122F8A2011201224FA301120122F8A361
:1006E30001120122FFA401120122C9A50112012254
:1006F30029A7011201226CA70112012211A80112DC
:1007030001225EA80112012284A80112012292AAE9
:100713000112012297AA011201229CAC01120122AB
:10072300E9AC011201225CAD011201228FAD01126D
:10073300012231AE01120122DAAE0112012212AFFF
:100743000112012215AF011201225DAF0112012234
:100753009DAF01120122F4AF01120122F9820312AB
:1007630001221183031201225983031201226F8391
:1007730003120122B68303120122CA840312012247
:10078300578503120122A28503120122F0240012CD
:100793000122FC24001201223725001201227C25AC
:1007A300001201223C2600120122C226001201225D
:1007B3002727001201225327001201228C2700123F
:1007C3000122CA2900120122AE2B00120122942D0C
:1007D30000120122D72E001201222531001201221C
:1007E30037320012012282330012012292340012A6
:1007F3000122AF3400120122EA34001201220C3527
:10080300001201226F3500120122303A0012012238
:10081300C53A00120122163B001201223D3B001291
:1008230001228F3B00120122AD3B00120122073C43
:1008330000120122F03C00120122663E0012012246
:10084300EA3E00120122C4D702120122CED70212BD
:10085300012211D8021201222CD802120122BCD883
:1008630002120122E4D80212012221D9021201222A
:1008730058D90212012281D902120122F6D9021299
:1008830001220BDA0212012220DA0212012251DACA
:100893000212012265DA021201228ADA021201220D
:1008A300C4DA02120122F0DA0212012228DB021258
:1008B3000122A7DB02120122D2DB021201221BDC7E
:1008C3000212012245DC0212012270DC0212012213
:1008D3006393031201220080021201222E8002126E
:1008E30001227C81021201225C82021201227B829C
:1008F30002120122F882021201223B830212012218
:10090300918402120122528502120122D987021216
:1009130001227A88021201227089021201226D8A51
:1009230002120122C78B02120122528C02120122EF
:10093300089203120122719203120122C59203123B
:100943000122EC92031201221D930312012218E6E5
:100953000212012285E602120122CCE602120122D2
:10096300E4E702120122E0E802120122C3E90212C3
:10097300012289F701120122CBF7011201229DF80E
:100983000112012276F90112012270FA01120122E9
:1009930052FB01120122BBFB0112012271FC011265
:1009A3000122E5FC0112012251FD011201227AFD0F
:1009B30001120122F4FD011201228DFE0112012216
:1009C300F2FE0112012207FF011201224DFF011263
:1009D300012266FF01120122CBFF01120122CEFF89
:1009E3000112012200800312012228800312012236
:1009F3006680031201222481031201228B810312D8
:100A03000122A78103120122CF8103120122FF8158
:100A1300031201220E82031201228B82031201228E
:100A2300B18203120122C090011201225E920112CF
:100A33000122799401120122B59401120122E29458
:100A430001120122C795011201220E960112012201
:100A5300529601120122649601120122A4960112F8
:100A63000122D196011201221C97011201225C97E7
:100A7300011201228A9701120122DC97011201223D
:100A83006C98011201220A9B01120122209D01127E
:100A930001225E9D01120122EF9E01120122349F69
:100AA30001120122AB9F01120122F59F01120122C3
:100AB30020A001120122C7A00112012205AC0212DB
:100AC300012284AC0212012246B20212012255B362
:100AD30002120122BDB40212012254B502120122F4
:100AE300745300120122BD5300120122EA53001273
:100AF30001221D54001201222A54001201223654ED
:100B0300001201224854001201222F550012012223
:100B13008D5500120122C255001201220557001201
:100B23000122525700120122765700120122E35785
:100B330000120122A158001201225A590012012267
:100B4300C75900120122795A00120122895A001250
:100B53000122105B00120122CF5B00120122FC5B19
:100B630000120122755C00120122D25C00120122E4
:100B73001C5D00120122B25D001201227D5E001293
:100B83000122325F00120122A75F001201220860D6
:100B930000120122726000120122AB6000120122D6
:100BA3004D61001201225D62001201229D6200125A
:100BB3000122BA6200120122D962001201222063CB
:100BC3000012012245630012012272630012012206
:100BD300EC63001201222D64001201225165001200
:100BE3000122016600120122586600120122C26628
:100BF30000120122DB66001201223BA20212012233
:100C03008EA2021201229AA2021201226FA30212E1
:100C1300012296A302120122D1A3021201223DA4B2
:100C23000212012279A402120122B2A402120122A9
:100C3300CAA4021201221FA50212012238A5021220
:100C4300012281A50212012294A502120122AEA55E
:100C530002120122C4A502120122F7A602120122E6
:100C63003EA80212012240A9021201223AAA02124C
:100C73000122F37F0012012252EA0112012282EAC9
:100C8300011201224AEE01120122A1EF01120122F7
:100C93006AF001120122EAF101120122BBF20112F0
:100CA3000122F8F2011201221BF30112012259F36E
:100CB3000112012262F301120122ACF3011201229B
:100CC300B6F30112012260F40112012239F5011277
:100CD30001228DF501120122EFF50112012242F6E4
:100CE3000112012271F601120122AEF60112012254
:100CF3000D6700120122746A001201227A6A00123F
:100D03000122FC6F001201227574001201224B783C
:100D13000012012242F902120122B8F90212012241
:100D2300CEF9021201220FFA0212012249FA02122B
:100D33000122C2FA02120122FDFA0212012270FB01
:100D430002120122AEFB02120122B7FB02120122A0
:100D5300C3FB02120122DFFB021201220AFC021270
:100D6300012220FC0212012264FC0212012298DCFF
:100D730002120122ABDC02120122C5DC02120122A3
:100D8300EEDC0212012231DD0212012270DD0212B9
:100D93000122AEDD0212012213DE0212012228DE3D
:100DA3000212012233DE0212012240DE021201226C
:100DB30057DE0212012265DE0212012270DE0212E8
:100DC30001227CDE021201228FDE021201229ADE50
:100DD30002120122BDDE0212012264DF021201228D
:100DE30074DF021201228EDF02120122ABDF021234
:100DF3000122C7DF02120122ECDF02120122F7DF18
:100E0300021201220CE00212012220E0021201224E
:100E130081E00212012287E0021201228DE0021218
:100E2300012293E002120122ABE002120122DEE072
:100E33000212012243CE01120122C7CE0112012266
:100E430076CF01120122D5D001120122F6D201126E
:100E53000122E2D30112012217D40112012239D453
:100E630001120122E8D401120122E0D6011201226B
:100E730009D7011201229BD701120122CDD70112FA
:100E83000122DAD70112012231D80112012257D8E7
:100E930001120122C4DA01120122C7DB011201226D
:100EA3001FDC01120122D2BF01120122DCC0011298
:100EB3000122C3C101120122CDC101120122EFC1DE
:100EC30001120122FBC10112012294C3011201226A
:100ED300C3C301120122DFC40112012238C501126A
:100EE30001229EC6011201227DC701120122D9C728
:100EF3000112012246C80112012281C801120122F6
:100F0300C0C80112012279CB0112012293CB011235
:100F130001221FCC011201222DCC0112012286CC09
:100F23000112012294CC0112012207CD01120122E8
:100F33006BCD01120122B5CD01120122D38C021215
:100F43000122F58C021201221B8F02120122309220
:100F530002120122489302120122FB930212012280
:100F6300DD9402120122F08B03120122158C03126D
:100F73000122878C03120122CFC502120122D8C598
:100F830002120122E1C502120122B8C60212012295
:100F930069C8021201229FC802120122D9C8021293
:100FA30001220FC90212012249C9021201227DC97D
:100FB30002120122A9C902120122F2C9021201225C
:100FC3002CCA0212012275CA02120122CDCA0212D0
:100FD300012202CB021201225DCB0212012297CB26
:100FE30002120122E8CB021201221ECC02120122BC
:100FF30058CC0212012286CC02120122A9CC021281
:1010030001221F99031201224B9903120122A6996F
:1010130003120122B09903120122C0990312012283
:10102300AEBD02120122B8BD02120122F6BD0212A8
:1010330001223FBE0212012279BE02120122D3BE57
:1010430002120122F4BE0212012296C102120122EF
:101053009FC102120122F0C10212012219C202121F
:10106300012223C2021201228FC20212012223C3D0
:101073000212012277C302120122ADC3021201221E
:1010830034C40212012274C402120122ACC402123B
:101093000122BEC402120122DDC402120122E6C4EF
:1010A30002120122A5C5021201228D96031201220A
:1010B3003788031201226D8803120122A3880312C9
:1010C3000122FC8903120122DC9A03120122F29A03
:1010D30003120122FC9A03120122469B03120122EE
:1010E30085EA021201229EEA0212012242EB021257
:1010F300012282EB021201229BEB02120122CFEBAF
:10110300021201221CEC0212012250EC02120122F3
:1011130092EC02120122949003120122BD90031259
:101123000122E69003120122819103120122C3914D
:10113300031201227C9403120122979403120122C9
:1011430010950312012294FC02120122B9FC02122F
:101153000122E5FC02120122EE9B03120122513F00
:1011630000120122B541001201226743001201223D
:10117300594400120122DE44001201225C45001290
:101183000122894500120122AD480012012227499C
:1011930000120122164A00120122504A00120122B3
:1011A300904A001201224A4C001201229D4C001267
:1011B3000122E64C00120122544D00120122864DF9
:1011C300001201229E4D00120122B34E0012012291
:1011D300C34E00120122F34F0012012215500012D8
:1011E30001224B5000120122F051001201222F5212
:1011F300001201224F53001201225E9803120122B2
:101203006F9803120122149903120122A59B031262
:101213000122E49B03120122A79C03120122CA9913
:1012230003120122DA9903120122EF990312012218
:10123300559A031201228995031201220E96031275
:1012430001227496031201221C8F03120122458F7F
:1012530003120122B08F0312012201900312012213
:101263005A9003120122CCF502120122E1F5021277
:1012730001224AF702120122B6F7021201222AF8CA
:101283000212012244F8021201225BF80212012227
:101293006EF80212012286F8021201229BF8021252
:1012A3000122BCF8021201220DF902120122B89C9C
:1012B30003120122958D03120122EA8D03120122EA
:1012C300588E03120122C88E03120122CC85031209
:1012D3000122F68503120122CB8603120122BF8766
:1012E300031201227EB5021201223BB60212012231
:1012F30076B6021201229EB60212012200B7021232
:1013030001224CB702120122A5B70212012236B8FC
:101313000212012238B902120122F5BA0212012285
:1013230077BB02120122DCBB02120122F3BB0212C1
:10133300012203BD0212012241BD021201226DDC12
:1013430001120122F7DF011201227FE101120122C2
:10135300D6E101120122F5E10112012273E2011229
:10136300012211E401120122F5E401120122DFE856
:1013730001120122AFE90112012249CD0212012219
:101383007DCF0212012265D002120122E1D10212A5
:10139300012206D20212012217D2021201223BD2EB
:1013A3000212012296EE02120122DBEE0212012248
:1013B300F8EE02120122BAEF0212012218F0021211
:1013C3000122E2F002120122FAF102120122359CFB
:1013D30003120122BD7F00120122619C031201222C
:1013E300899C03E066701008A3E066700A08A3E016
:1013F30066700408A3E06622C3E7960809E7960827
:1014030009E7960809E79622C3E09608A3E0960841
:10141300A3E09608A3E09622C008C3E096F5080867
:10142300A3E096420808A3E096420808A3E0964585
:10143300087001D3D00822080808EAC0E0EBC0E036
:1014430086F0E7A4FA180986F0E7A42AFA180986B1
:10145300F0E7A42AFA180986F0E7A42AFA1986F015
:10146300E7A4FBE5F02AFA190886F0E7A42BFBE5CD
:10147300F03AFA190886F0E7A42BFBE5F03AFA18DC
:10148300180986F0E7A4C5F02BFBE43AFA1908E73C
:10149300C5F0C6A426F6E5F03BFBE43AFA1886F05D
:1014A300E7A4F6E5F00826F6E43B08F6E43A08F686
:1014B300D0E0FBD0E0FA22E4CFC0E0E4CEC0E0E429
:1014C300CDC0E0E4CCC0E075F020E626F608E633B4
:1014D300F608E633F608E633F6181818EC33FCED95
:1014E30033FDEE33FEEF33FFC3EC9709ED9709EEBF
:1014F3009709EF97191919400FFFEC97FC09ED971E
:10150300FD09EE97FE191906D5F0BFECF709EDF7C3
:1015130009EEF709EFF7191919D0E0FCD0E0FDD077
:10152300E0FED0E0FF226016080808C6C313C61801
:10153300C613C618C613C618C613C6D5E0EA22706A
:1015430009080808226016181818C6C333C608C647
:1015530033C608C633C608C633C6D5E0EA22E62733
:10156300F60809E637F60809E637F60809E637F616
:1015730022E026F608A3E036F608A3E036F608A331
:10158300E036F622E026F008A3E036F008A3E036C2
:10159300F008A3E036F022C3E697F60809E697F6CB
:1015A3000809E697F60809E697F622C3E096F008DD
:1015B300A3E096F008A3E096F008A3E096F022E0FB
:1015C30056F608A3E056F608A3E056F608A3E0563D
:1015D300F622E056F008A3E056F008A3E056F00820
:1015E300A3E056F022E0F608A3E0F608A3E0F6082D
:1015F300A3E0F622E6F008A3E6F008A3E6F008A3CA
:10160300E6F022E0FAA3E0FBA3E0FCA3E0FD22EA7C
:10161300F0A3EBF0A3ECF0A3EDF022E0F8A3E0F9E4
:10162300A3E0FAA3E0FB22E8F0A3E9F0A3EAF0A326
:10163300EBF022CAC0E0E6F0A308DAFAD0E0FA221F
:10164300CAC0E0E0A3C582CCC582C583CDC583F003
:10165300A3C582CCC582C583CDC583DAE6D0E0CAF3
:1016630022C3E498F8E499F91216A58026C3E49AF4
:10167300FAE49BFBE920E7E91216A5E498F8E4995C
:10168300F922C3E498F8E499F91216A5E498F8E46A
:1016930099F9C3E49AFAE49BFB22EB20E7CFE92014
:1016A300E7E0B90010BB0008E88AF084F8AAF0224A
:1016B300E4FBC8FA22EB70227B10C833C8C933C9D4
:1016C300335007C39AC3DBF280069A50012ADBEA40
:1016D300C833F4C8C933F4C9FA2275F008E4C8332F
:1016E300C8C933C933C99AC99B5004C92AC93BD550
:1016F300F0ECFBC833F4C8E4C9FA22600D08C6A2B3
:10170300E713C618C613C6D5E0F322600C08C6C398
:1017130013C618C613C6D5E0F422700422600D1850
:10172300C6C333C608C633C6D5E0F418222518103D
:10173300AF08F518400C15198008F5184002151963
:10174300D2AF2200C0D0251810AF08F518500C05F1
:10175300198008F51850020519D2AFD0D0222518E8
:10176300F58210AF08F518400C15198008F51840DC
:10177300021519D2AF851983222518F582E435198C
:10178300F583222518F8E43519F9222518FAE435EA
:1017930019FB222518FCE43519FD22E4732518C52D
:1017A30082C0E0E51934FFC583C0E0E518C3958224
:1017B30024F810AF0885831985821880088583195A
:1017C300858218D2AFCEF0A3E520F0A37808E6080F
:1017D300F0A3DEFAEFF0A3E58124FAF8E608F0A31C
:1017E300E608F0A3E608F0A30808E608F0A3E60875
:1017F300F0A315811581D0E0FED0E0F815811581A5
:101803001581E8C0E0EEC0E0222518C582C0E0E5FE
:101813001934FFC583C0E0E518C3958224F910AFDE
:10182300088583198582188008858319858218D2D3
:10183300AFCEF0A3E520F0A37808E608F0A3DEFA24
:10184300EFF0A3E58124FBF8E608F0A3E608F0A394
:101853000808E608F0A3E608F0A315811581D0E097
:10186300FED0E0F815811581E8C0E0EEC0E02285E6
:101873001983851882E0A3FEE0A3F5207808E0A38E
:10188300F608DFFAE0A3FFE0A3C0E0E0A3C0E0E0D6
:10189300A3C0E0E0A3C0E0E0A3C0E010AF088582EE
:1018A300188583198008858218858319D2AFD08360
:1018B300D08202011F851983851882E0A3FEE0A36D
:1018C300F5207808E0A3F608DFFAE0A3FFE0A3C061
:1018D300E0E0A3C0E0E0A3C0E0E0A3C0E010AF08F5
:1018E3008582188583198008858218858319D2AF6C
:1018F300D083D08222C0D02518C582C0E0E5193438
:10190300FFC583C0E0E518C3958224F310AF0885B3
:1019130083198582188008858319858218D2AFC8F8
:10192300F0A3E9F0A3EAF0A3EBF0A37908E709F049
:10193300A3D8FAECF0A3EDF0A3EEF0A3EFF0A3D05D
:10194300E0F0A3D0E0F0A3D0E0F0A3E520F0A3E51E
:10195300F0F0A322851983851882E0C0E0A3E0F9A3
:10196300A3E0FAA3E0FBA37808E0F608A3DFFAE01C
:10197300FCA3E0FDA3E0FEA3E0FFA3E0C0E0A3E03F
:10198300C0E0A3E0F5D0A3E0F520A3E0A3F5F010B9
:10199300AF08858319858218800885831985821885
:1019A300D2AFD082D083D0E0F8D0E0327404800686
:1019B300740280027401C0E0F404121761D0E012D3
:1019C3001636227404800474028000CCC0E0EDC09B
:1019D300E0E518C39CCCAD1950011D10AF068C185F
:1019E3008D1980068C188D19D2AF121643D0E0FDE5
:1019F300D0E0FC22D083D082E9C0E0E493A3C38685
:101A0300F0C5F095F0F908E493A386F0C5F095F0DE
:101A1300700BE493A3C3994005E9048002A3E47522
:101A2300F002A42582F582E5F03583F583D0E0F951
:101A3300E493A3C0E0E493C0E022D083D082ECC05F
:101A4300E0EDC0E0E493A3FCE493A3FDED4C600D53
:101A5300121A89EC24FFFCED34FFFD80EFE493A31D
:101A6300FCE493A3FDED4C600D121AC8EC24FFFCBB
:101A7300ED34FFFD80EFD0E0FDD0E0FCE493A3C0A4
:101A8300E0E493C0E022C0E0C3E4939608740193BA
:101A93009618400FE49366700808740193661870F3
:101AA300007019A3A3C3E49396087401939618A333
:101AB300A3400DD0E0D0E0D0E0021A79A3A3A3A302
:101AC300A3A3D0E022C0E0C0F088F0E493667008DE
:101AD3000874019366187000A8F0A3A3700BD0F0EC
:101AE300D0E0D0E0D0E0021A79A3A3D0F0D0E02276
:101AF40074F512180CEAFEEBFFEE2434F8EF340010
:101B0400F988088909EE2435121C20F8EE243712CE
:101B14001C20F50AEC850AF0A4FCAAF0850AF0ED75
:101B2400A42AFDE82CF8E43DF97A257B001216A5D9
:101B3400EA850882850983F074075AF87401B800AD
:101B4400028004C333D8FCFBEA131313541FF8EECA
:101B540028F8EF3400F9E8245DF582E9121C235BD0
:101B64006003EA801CEE2436121C20F5F0EA84A8F7
:101B7400F0EE28F8EF3400F9E82438F582E9121C75
:101B840023F97F040218B874F512180CEAFEEBFF6F
:101B9400EE2434121C20C0E0EE2435F582EF34002C
:101BA400F583D0E0F08E828F83A3A3A3A3A3E0FAEE
:101BB400A3E0FB8E828F83A3A3A3A3A3A3A3E0FC30
:101BC400A3E0FDECC39AF50AED9BF50BEE247FF53B
:101BD40008EF3400F509850882F583E06401702B71
:101BE400EE2480F582EF3400F5831219CA121C2901
:101BF4007402121746E960137CDC7D04EEFAEFFBF5
:101C0400120B9A850882850983E4F0AC0AAD0BEEC9
:101C1400FAEFFB121AF412244F021B86F582EF34FA
:101C240000F583E022C082C083851882851983E091
:101C3400F8A3E0F9C3EA9CEB9D5010C3EC98ED992E
:101C4400401BC3EA98EB995014800EC3EA98EB99B1
:101C54004007C3EC98ED994004790180027900D0E3
:101C640083D08222EAC39CFAEB9DFB2274ED121806
:101C74000C9003A2E064086005E06407702C906196
:101C8400C8E060269003D0E0F874FF68601CE87533
:101C9400F003A4C8AAF02AF974D228FE740339FF09
:101CA4008E828F83A3A3A3E070057900021E10EE39
:101CB4002468F510EF3400F511906060E08510821F
:101CC400851183F0750A45750B05750800750900C3
:101CD400E5D914F50EE5D95403F50F601CEE248202
:101CE400F50CEF3400F50D7403650F6058E50E60D4
:101CF40013EE2467121C20700B793DEEFAEFFB12F1
:101D04000BBE80A6900540E064016026850C8285A8
:101D14000D83E06004780480027800850E08E508ED
:101D2400C398FA95E0FB120A388A088B09EA450938
:101D34007006120E16021CAE850C82850D83E070AF
:101D4400048A0A8B0B78008016E5D9C0E08812E576
:101D54000A2512F582E50B3400F583D0E0F008E89B
:101D6400C3950E40E4850C82850D83E0602874FCE5
:101D7400250EF50E780A1219B3AC0EA90FEEFAEF80
:101D8400FB120C6C7402121746E9700AAA08AB091C
:101D94001212BA021CFD7403650F6058850E0C758F
:101DA4000D00780C1219B3AC0AAD0BAA08AB0912DA
:101DB4000C307402121746851082851183E0F87482
:101DC40080687005750C7F8002880CE50CF50A7834
:101DD4000A1219B7E50FF50A780A1219B7A90EAC59
:101DE40008AD099003D0E0FA7B001208D074021207
:101DF400174680139003A2E06408600BAC0AAD0B95
:101E0400EEFAEFFB120D02120E2279017F0C02187A
:101E1400B874F312180C74FC121730EAFEEBFF8945
:101E240008A2AFE433F509C2AFEE2463F50AEF3438
:101E340000F50B8010AA0AAB0B120BE81212BA9031
:101E440004E3E004F0850A82850B83E0F8A3E0F95B
:101E5400E849602FE82402FAE93400FBEA2402F599
:101E64000CEB3400F50D780C1219B38A828B83E0E5
:101E7400FCA3E0F9EEFAEFFB120BDC740212174636
:101E8400E960B29004E3E060579004E4E0F8900461
:101E9400E3E0C398500C7402650870449004E5E0D4
:101EA400603E8E828F83A3A3A3A3E0851882851945
:101EB40083121EF4740212177CE8121EF49004E2DA
:101EC400E028F0740212177CAC82AD8385188285F9
:101ED4001983AA82AB8379011208DC9004E3E4F04D
:101EE400E509A2E092AF74041217467F060218B8FF
:101EF400F0A3E4F09004E3E0F82200008521878554
:101F040022C622C0E074EF1218F8A2AFE433FEC276
:101F1400AF759B00906182E0A2E05012E591A2E0CF
:101F2400500C7591FE740165217003121C70E0A2BF
:101F3400E55051E591A2E5504B7591DF9003A2E085
:101F440064076005E06408702374016521703579C5
:101F5400019003D0E0FA75F003A4CAA8F028FB743A
:101F6400D22AFA74033BFB121E158018E0640D702C
:101F7400139003C4E004F064287002E4F07A00E0F3
:101F8400F9120E28906182E0A2E6400302202EE5B9
:101F940091A2E6400302202E7591BF9003A2E06453
:101FA400057008120D44120D508003120D4A75215C
:101FB40000120DB6E99003A3F07900120DAA120BDA
:101FC400047A017B009003A1E0F912108090780359
:101FD400E064427055900544E014F0704DC2AF12B5
:101FE4001FE600782AD0E0F618D0E0F6E59F540703
:101FF40070057509FF800375097FC4C0E07829E680
:10200400F50808E65509F509740B780812170ED07F
:10201400E02508F8906270E0A2E740F8E8C3339046
:102024006272F0906270E0D2E0F0906181E0A2E32D
:102034005009E5E9A2E3500375E9F7A3E0A2E750EC
:1020440009E591A2E7500375917FEEA2E092AF7F7C
:1020540004021957C0E0C0D0C082C083906183E0FD
:10206400A2E05009E5BFA2E0500375BFFEE0A2E183
:102074005009E5BFA2E1500375BFFDE0A2E250099B
:10208400E5BFA2E2500375BFFBE0A2E35009E5BF40
:10209400A2E3500375BFF7E0A2E45009E5BFA2E450
:1020A400500375BFEFE0A2E55009E5BFA2E5500378
:1020B40075BFDFE0A2E65009E5BFA2E6500375BF95
:1020C400BFD083D082D0D0D0E032C0E074F21218F6
:1020D400F8E5A7A2E4500FE5A1A2E4500953A7EF45
:1020E40075A1EF122122E5A7A2E5500CE5A1A2E516
:1020F400500653A7DF75A1DFE5A7A2E15009E5A1CA
:10210400A2E1500375A1FDE5A7A2E2500CE5A1A24E
:10211400E2500653A7FB75A1FB7F0102195774F81F
:1021240012180C7521019003A2E0640670077A006E
:102134007B00120D2CA2AFE433FED2AF9003A8E0D3
:10214400640170187A207B009003A1E0F912110455
:102154007A207B009003A1E0F9121086906182E05E
:10216400D2E6F0900541E0602185C62280169003F6
:10217400A7E064017008E5C654F84405F5C653BEEB
:10218400FC121F007401652160E4EEA2E092AF7FAF
:10219400010218B88E238F24858228858327851809
:1021A40082851983E0CEA3E0CF852882852783EB3F
:1021B400C9EAC8EDCBECCA75F010C3E833C8E933FB
:1021C400C9EA33CAEB33CBC3EA9EF526EB9FF52568
:1021D400B35004AB25AA26EC33CCED33CDD5F0DADD
:1021E400AE23AF242274F112180C8A088B098C0ACE
:1021F4008D0B90902B78081215C2740F12177C78EF
:102204000C1215E890902B780C1215C27808790CF2
:102214001213FB90903F50107808790C12159A789D
:102224000812141B4014800E780C790812159A7841
:102234000C12141B50047901800279007F080218E3
:10224400B874ED12180C8A088B098C0A8D0B9090C7
:102254002B78081215C2741312177C780C1215E827
:1022640090902B780C1215C2780C79081213FB404D
:10227400117808790C12159AAA08AB09AC0AAD0BAF
:102284008022751000751100751200751301781005
:10229400790C12159A78107908121561AA10AB11ED
:1022A400AC12AD137F0C0218B890902B780812155D
:1022B400E88A828B8378081215D57F040218B874D3
:1022C400F512180C8C828D8378081215E88A828B9B
:1022D4008378081215AE122317C3E098F0A3E0998F
:1022E400122309401E90906F78081215E88A828B99
:1022F4008378081215878E828F83E02420F0A3E070
:10230400344EF080A4F08E828F83C3E09420A3E047
:10231400944E22EA2404F8EB3400F9E8FEE9FF8C39
:10232400828D83A3A3A3A3E0F8A3E0F98E828F8315
:102334002274F512180CE9FE9004F7E0FAA3E0FB0E
:10234400EEC333F8E433F9742028F582748F39F539
:1023540083E02AF508A3E03BF50978081219B39045
:10236400906312160612219874021217468A088B7B
:10237400098C0A8D0B74107808121529AA08AB0968
:102384007F040218B874F112180C8A0C8B0D8C0E91
:102394008D0F740F12177CE0FAA3E0FB741112176F
:1023A4007CE0F508A3E0F50978081219B3EA2401E2
:1023B400F508EB3400F509E4F50AF50B780C790817
:1023C40012143A90903B78081215E8780C790812A8
:1023D400143AAA0CAB0DAC0EAD0F12219874021274
:1023E40017468B09EA450960047A0180027A00ECF9
:1023F4002AFCED3400FD741312177CE0F8A3E0F915
:10240400E8FEE9FFECF8EDF97A717B021216A58873
:10241400088909E4F50AF50B8E828F837808121572
:10242400F7ECF8EDF97A717B021216A58A088B098C
:102434007405780812171D8E828F83A3A3A3A3E5C6
:1024440008F0A3E509F07F080218B8C082C083E948
:10245400906000F0D083D08222C2AF02000022C07C
:10246400E074F21218F8A2AFE433FED2AFE589A209
:10247400E15003121260758900C2C5EEA2E092AF6A
:102484007F01021957C0E074F21218F8A2AFE433C6
:10249400FED2AFE58BA2E05003121260758B00C22E
:1024A400E880D8C0E0C0D0E8C0E0E9C0E0E5A8D248
:1024B400AFC2C7A2E7A2E792AFD0E0F9D0E0F8D06C
:1024C400D0D0E032C0E074F21218F87A0379041222
:1024D4001200EAFCEBFD7A067B0912113A7F010235
:0224E400195786
:1024E800FFFFFFFFFFFFFFFFC082C083E9900A36AE
:1024F800F002277F74F71217A0E99002E1F07C1927
:102508007D037AFF7BFF12081C9002E274FFF0A3A0
:10251800F0A3E4F0A3F079051207A49002E1E0F932
:102528001206C67A3A7B081209EA7F010218727409
:10253800F41217A08A088B09EB548060309002E1EE
:10254800E0F91210688A0A8B0BAE0AAF0BEE4F60E7
:10255800138E828F83E064B070031207BCEEFAEF2B
:10256800FB121056AA08E5096480FB80047A007BF8
:102578000002274E74F21217A074FC121730EAFEFC
:10258800EBFFEE4F6038740212177CEEF0A3EF12E7
:1025980029B3ECF0A3ED1229B3AA82AB831206C0CB
:1025A800E9F5087073741212177C123567E50A454D
:1025B8000B60658E828F8312262AEE4F7005750890
:1025C8000280557A067B001210BC8A0C8B0DA80C71
:1025D800A90DE8497005750813803D88828983E450
:1025E800122634A3A3EEF0A3EF123A00E50AF0A3F3
:1025F800E50BF09002E71226BC9002E76017E0FCBA
:10260800A3E08003EAFCEBFD8C828D831226BC706C
:10261800F38C828D8312348CA90874041217460235
:102628003C02A3A3A3A3E0FEA3E0FF22F0A3F0884B
:102638008289832274F21217A0890AE975F017A417
:10264800FEAFF09002E6E4F09002E41226BC600AC5
:102658001210C29002E4E4F0A3F0EEFAEFFB1210BD
:10266800BC8A088B09EA4509602FEEFCEFFD79006A
:1026780012103E9002E4E508F0A3E509F07B008023
:10268800081226A6E4F0A3F00BEBC3950A40F2E586
:102698000A9002E6F0790080027913023C02EB7599
:1026A800F017A4F8A9F09002E4E028FAA3E0398A28
:1026B80082F58322123222EA4B2274F41217A07593
:1026C8000800750900740C12177C1239D4FEE9FF52
:1026D800800CE5082401F508E5093400F509C3E58F
:1026E800089CE5099D503285080A85090B74037812
:1026F8000A12171DEA250AF8EB350BF98882898337
:10270800A3A3A3A3A3A3123567EE650A7003EF651D
:102718000B70BFE8FAE9FB80047A007B008027741D
:10272800F41217A07900EAA2E0501B7508E47509B5
:102738008F78081219B37C047D007A387B0A120757
:102748009E74021217467F04021872C082C08390DA
:1027580002E7122786601C88828983A3A3E06A7037
:1027680003A3E06B8882898370E8A3A3A3A3123232
:102778001E80047A007B00D083D08202011F123CA5
:10278800D5E8492274EE1217A074FC121730EAFE3D
:10279800EBFF851882851983E4F0A3F0EE2402127A
:1027A8003470EE24051229A1EE2404F50EEF122D43
:1027B80086E024FE603924FC604624FE605224FE34
:1027C800605E24FE70030228A624FE700302291E00
:1027D80024FE700302292D24FE700302293C24FCE8
:1027E800700302294B24FE700302295A022997908C
:1027F80003007417F0A3E41229BB12043E022997C0
:10280800851882851983AC82AD831207C2022967B5
:10281800851882851983AC82AD831207C80229679F
:10282800850C08850D09740212177CAC82AD83856E
:10283800088285098312321E1206E48A0C8B0DACBD
:102848000CAD0DEC4D6042E4F50CF50D780C121949
:10285800B3750C00750D03780C1219B3750C01755E
:102868000D03780C1219B3740812177C1219CA795F
:10287800161232181208047408121746E9F50C707B
:102888000B123214120456800F750C0185088285CC
:1028980009831229A912348C850C0802296A74024A
:1028A80012177CAC82AD83850C82850D8312321E93
:1028B8001206E48A108B11AC10AD11EC4D60438503
:1028C8000C82850D83A3A31219CA75100075110314
:1028D80078101219B375100175110378101219B315
:1028E800740812177C1219CA7916123218120804C1
:1028F8007408121746E9F509700B12321412045CB9
:10290800800F750901850C82850D831229A912345F
:102918008C850908804C851882851983AC82AD8323
:102928001207CE803A851882851983AC82AD83124E
:1029380007D4802B851882851983AC82AD83120752
:10294800DA801C851882851983AC82AD831207E072
:10295800800D851882851983AC82AD831207E6E95C
:10296800F508E50860298E828F83A3E06414601F50
:10297800850E82850F83E09003001229B3123CD1A3
:1029880090030112348CE508A31229BB120438EE17
:10299800FAEFFB120762023378F50CEF3400F50DFD
:1029A80022123CD585188285198322F085188285E4
:1029B800198322F07C007D03850A82850B831232FD
:1029C800222274EE1217A074FC1217308A0A8B0B9D
:1029D8008C0E8D0FEA2405F508EB3400F5097C15FB
:1029E8007D0079007A007B0312103EE5082402F589
:1029F8000CE5091229A4851882851983858210851A
:102A0800831178101219B3850882850983A3A3A3BB
:102A1800A3122ECE1219B3E5082405F510E50934E2
:102A280000F51178101219B3850C82850D831232C6
:102A3800281206DE74061217468A108B11AE10AFE4
:102A480011E50A2402F50AE50B123473EE4F700300
:102A5800022B908017740212177C12321E8882890A
:102A680083EAF0A3EBF0900300E004F0900300E0A9
:102A7800C394054003022B90E4F510F51178101269
:102A880019B37510E975110278101219B37510EAA7
:102A980075110278101219B3740612177C1219CA2C
:102AA8007910EEFCEFFD12321812080474081217A0
:102AB80046E9705E850882850983A3A3A3A3A3A31F
:102AC800A3E0F89002E9E0687048122ECE1219B31C
:102AD8007CEA7D02E5082408FAE5093400FB1210B7
:102AE800387402121746E960298E828F83A3A3A344
:102AF800A312321E900300E0F5107402781012172A
:102B08001D74012510F58274033511F583EAF0A3CD
:102B1800EBF0740212177C858210858311781012ED
:102B280019B3740212177C1219CA850C82850D8399
:102B3800123CE61206EA74041217468A108B11AE8C
:102B480010AF11900300E0F51075110074027810B1
:102B580012171D74002510F874033511F98882893D
:102B680083A31226BC7003022A54E82403F8E9342C
:102B780000F9EE4F6003022A5D8882898374FFF0B2
:102B8800A3F0900300E004F0900300E0600A123222
:102B98001412044A7900800B85088285098312344F
:102BA80083790A02337874EA1217A074FE12173078
:102BB8008C128D13EA2405F50CEB123E5012262ECA
:102BC800750800750900EA2402F510EB3400F511C8
:102BD80085188285198385820A85830B780A1219DC
:102BE800B3850C82850D83A3A3A3A3122D9012197C
:102BF800B3E50C2405F50AE50D123473780A1219A9
:102C0800B3850C82850D83123CE41206DE7406122D
:102C180017468A0A8B0BEA450B7003022D41EA24FA
:102C280004F50EEB122D8612262E8A828B83A3A31F
:102C3800A3E0F985108285118312321E1206CCE9B1
:102C4800F5096003022D41E4F514F51578141219FD
:102C5800B37514E975150278141219B37514EA7569
:102C6800150278141219B3740612177C1219CA794E
:102C780013AC0AAD0B85108285118312321E12081F
:102C8800047408121746E9F5096003022D41900201
:102C9800E9E0F8E5087009E02402900301F08017E4
:102CA800900301E0FCE82402FAE43400FBEA6C70CB
:102CB80001EB6003022D45850882AA82122EC59475
:102CC80014122EBD5073850E82850F83E0C0E07408
:102CD800022A122D7DD0E0F00508850E82850F832B
:102CE800A3E0C0E085080A7402250A122D7DD0E011
:102CF800F005089002E9122D901219B37CEA7D02C2
:102D080085080A7402250AFA74033400FB12102697
:102D180074021217469002E9E02508F50874FF6E60
:102D2800700374FF6F6012EE24010EEF3400FFE5AC
:102D380008C394145003022BD8E508601312310914
:102D480085108285118312321E1204507900801476
:102D5800E509700375090A851282851383EEF0A3CD
:102D6800EFF0A90974021217467F0E02187285083F
:102D78000C7402250CF58274033400F583223400A8
:102D8800F50F850E82F58322123A132274EE12177C
:102D9800A074FE1217308C0E8D0FEA2405F50CEB8B
:102DA8001229A4750B00900300E4F0F50AEA240246
:102DB800F508EB3400F5098049900300E0FA900229
:102DC800E9E0F8122EC59417122EBD400D900300AD
:102DD800E0F87416C3989002E9F0122ECE1219B3D7
:102DE8007CEA7D0274012AFA74033400FB1210266F
:102DF80074021217469002E9E0F8900300E028F008
:102E0800050AE50C2416F582E50D122D81E0F8E59A
:102E18000AC3984003022EA6900300E0C3941650FC
:102E28007DE50AC333F8E433F9E50C28FEE50D39EE
:102E3800FF851882851983AC82AD838E828F8312B9
:102E4800321E1206E48A108B11AC10AD11EC4D70D5
:102E580005750B018043E4F510F51178101219B3CC
:102E68007510E975110278101219B37510EA751109
:102E78000278101219B3740612177C1219CA79163F
:102E880085088285098312321E12080474081217F5
:102E980046E9F50B7003022DC112347F80107C00C7
:102EA8007D0385088285098312321E120462A90BEC
:102EB800740202337AE99400C365D03322EA28F811
:102EC800E43400F9E822E0F5107511007810227456
:102ED800EA1217A074FC1217308A0C8B0D8C128D15
:102EE80013EA2405F50AEB12347375080075090016
:102EF800E50A2402F510E50B3400F51174021217E7
:102F08007C85820E85830F780E1219B3850A828517
:102F18000B83A3A3A3A31239BF1219B3E50A24058F
:102F2800F50EE50B3400F50F780E1219B3851082F3
:102F38008511831234791232181206DE74061217BC
:102F4800468A0E8B0FAE0EAF0FE50C2402F50EE588
:102F58000D3400F50F80408882898374FFF00508DE
:102F6800122D7674FFF005089002E9E0F50C750D56
:102F780000780C1219B37CEA7D0285080C740225CE
:102F88000CFA74033400FB121026740212174690D0
:102F980002E9E02508F508EE4F60718E828F83A361
:102FA800A3A3E0F9850E82850F8312321E1206CC88
:102FB800E9F509EE24041229A1E97044E4F514F5B1
:102FC8001578141219B37514E975150278141219C5
:102FD800B37514EA75150278141219B37408121728
:102FE8007C1219CA7911EEFCEFFD850E82850F83DC
:102FF80012321E1208047408121746E9F5096027F0
:10300800850C82850D831230FF12348CE50870031D
:103018000230E5123109850E82850F8312321E12A5
:10302800046879000230FA850882AA82EA9002E9E7
:103038007009E02404900301F08022E0F890030175
:10304800E0F514E82404FCE43400FDEC6514700198
:10305800ED70C0122EC59412122EBD50B6850C828A
:10306800850D83E0C0E074022A122D7DD0E0F005C2
:1030780008850C82850D83A3E0C0E0122D76D0E090
:1030880012311B85820C85830D780C1219B37404D8
:1030980012177C1219CA851082851183123CE61218
:1030A80006EA74041217468A0C8B0DAE0CAF0D8518
:1030B800080C7402250CF874033400F9EE4F700301
:1030C800022F5F851882851983E0888289831231EF
:1030D8001BA3E0C0E0122D76D0E0022F6DE5097049
:1030E8000375090A850A82850B831230FF12348C16
:1030F800A9097404022D6E123CD5851282851383AA
:1031080022900301E0F5F0E50884900300F07C00CC
:103118007D0322F005088518828519832274EC1234
:1031280017A074FE1217308A088B098C0E8D0FEACF
:103138002405FEEB3400FF851882851983AC82AD27
:10314800838E828F8312321E1206E48A0A8B0BEE5C
:1031580024181229A1EA450B70030231EF123361DA
:10316800503285188285198312321E1207F88A1088
:103178008B11EA4511606B7912AC0AAD0B85088298
:1031880085098312321E85108285118312179EE9E4
:10319800F50A7058E4F50AF50B780A1219B38E820D
:1031A8008F83A3A3E0F50A780A1219B3EE24031259
:1031B8003470780A1219B38E828F8312322812085B
:1031C8000A7406121746E9F50A7021850C82850DE6
:1031D80083E0701F85088285098312321E12046EEF
:1031E8008011750A0E8009750A018004E50A6003DA
:1031F80012347F850C82850D83E06004790080029B
:10320800A90A74021217467F0C0218727C007D030B
:10321800850A82850B8312322222E0FAA3E0FB2280
:10322800E0FCA3E0FD85088285098312322222741E
:10323800EE1217A074FE1217308A088B098C0C8DB9
:103248000DEA2405FEEB3400FF750E008518828513
:103258001983AC82AD838E828F8312321E1206E4EC
:103268008A0A8B0BEA450B700302334D1233615007
:103278003585188285198312321E1207F88A0E8B3B
:103288000FEA450F605E7912AC0AAD0B850882859E
:10329800098312321E850E82850F8312179EE9F567
:1032A8000E6003023350850882850983123567AAA8
:1032B8000AFB1207EC8A108B11A810A911E84970B3
:1032C8001E7AFF7BFF1207EC8A108B11A810A91138
:1032D800E849606C88828983E50AF0A3E50BF075FC
:1032E8000A008007750E0E805F050A9002E6E0FA74
:1032F800E50AC39A504AE50A75F017A4FAABF088B4
:10330800828983A3A3E02AFAA3E03BFB8A828B830A
:10331800123479EC4D70D2750A17750B00780A12C1
:1033280019B3EEFCEFFD1210267402121746EEFCDC
:10333800EFFD85088285098312321E1204748014F9
:10334800750E098003750E01123CCD850C82850D22
:103358008312348CA90E022EB8E5082402F508E57C
:10336800093400F5098A828B83A3A3A3E0A2E5228E
:1033780074041217467F0A02187274EC1217A08C94
:10338800108D11EA2405F50CEB1229A4750F00EA3B
:103398002402F50AEB123473850A82F58312321E71
:1033A8001207EC8A088B09EA45097003023465752F
:1033B8000E008071850C82850D83E06401704F8E4C
:1033C800828F83A3A31219CA8E828F83A3A3A3A378
:1033D800E0F51275130078121219B3EE2405F512F0
:1033E800EF3400F51378121219B312321812080AC2
:1033F8007406121746E9F50F6014850C82850D8353
:10340800E4F0123CCD85108285118312348C7C1730
:103418007D007900EEFAEFFB12103E8E828F83E476
:10342800F0A3F0050E9002E6E0F8E50EC398501EF2
:10343800E50E75F017A4F8A9F0850882850983A31D
:10344800A3123E5A123479EC4D60030233BC85084E
:103458008285098374FFF0A3F0E50F700612321815
:1034680012047AA90F02320FF50AEF3400F50B2285
:10347800A3E0FCA3E0FD228E828F83123CD5850E4B
:1034880082850F83E8F0A3E9F022C082C08390020E
:10349800E2E06A7003A3E06B70067AE27B028004C4
:1034A8007A007B0002277FC082C08378008C828DDF
:1034B80083E06A7003A3E06B7010E875F003A4F86A
:1034C800A9F0EC28FAED39FB8015088C828D83A3CE
:1034D800A3A3E06A7003A3E06B60DF7A007B0002BD
:1034E800277F74F61217A01207B68A828B83E582AB
:1034F800458370067A007B008007A3A3A3A312323A
:103508001E023B7E74F21217A0E9FE740E12177C9D
:10351800123567741012177C1239DF8C828D83E0A4
:1035280064027036A3123CDBF50CA3E0F9A80C7416
:10353800026870037429697021750C02750D007892
:103548000C1219B378081219B3780A1219B3EEF9E4
:1035580012082E740612174680027901023C02E016
:10356800F50AA3E0F50B2274E81217A074FB1217F2
:1035780030E9851882851983F08A168B17ECFEEDE1
:10358800FF751000741D12177C123CD1741D1217A0
:103598007C12348C8E828F83A3A3A3E0A2E4502DE7
:1035A800741D12177C12321E1207F88A828B83E56B
:1035B80082458370030239B0790AEEFCEFFDAA1642
:1035C800AB1712179EE9F51060030239B3741F1286
:1035D800177C1239DF742112177C12356774231295
:1035E800177CE0F50EA3E0F50F8E828F83E064026E
:1035F800600302395EA3123CD1850882850983A342
:10360800858212858313EE24061229A18882898374
:10361800E0FAA3E0F9EA2400F514E439F515781482
:10362800121A3D0100002801285336070002281805
:10363800370328853600294F3801297A3802291B93
:103648003803294F380429F9385E39E50E450F60EB
:1036580003023959850C82850D831239D4FAE9FBA6
:103668008A828B83E0850A82850B83123A0A1219B3
:10367800B38A828B83A3E0FCA3E00238E3E50E451E
:103688000F6003023959850A82850B837401F01291
:1036980039E7850882850983F07C007D008E828F5A
:1036A80083A3A3A3A3E02401FAA3E03400FB12063A
:1036B800E4EA4B60418A828B83E02402F8850A821F
:1036C800850B83E028F0EA2404F8EB3400F98882BB
:1036D8008983E0851282851383123A1C123A0A12F2
:1036E80019B38A828B83123478E5082403FAE50932
:1036F8003400FB0238E8850A82850B83E02404F055
:103708007C047D007900AA12AB1312103E0239B373
:10371800E50E450F60030239591239E7FEA3E0FFB1
:10372800850A82850B837404F0EE850882850983F7
:10373800F0EF851282851383F0740312177CAC8234
:10374800AD83EEFAEFFB1206E48A0C8B0DEA450D09
:1037580070030237FC8A828B83A3A312262A740182
:1037680012177C85820E85830F780E1219B37405A3
:1037780012177C1219CA7CFF7DFF1206EA74041224
:1037880017468B0FEA450F7033850C82850D83121F
:1037980039BF1219B3850C82850D83A31219CA7C0F
:1037A800027D007A937B901205167404121746E97D
:1037B800700A740112177C74FFF0A3F08E828F8355
:1037C800E064027039750C02750D00780C1219B39B
:1037D8008E828F83123478E5082404FAE5093400D0
:1037E800FB1210267402121746850A82850B83E0A5
:1037F80024028009740112177CEEF0A3EFF0740123
:1038080012177C1239D0F0740112177CA31239C830
:10381800023953E50E450F6003023959850C82853C
:103828000D83123479AA16AB17120822850A8285ED
:103838000B837402F0EA850882850983F085128279
:10384800851383EB023956E50E450F60030239599B
:103858001239E7F8A3E0F9850A82850B837402F030
:10386800E8850882850983F0E98512828513830239
:103878003956850C82850D8312321E121020EAFCFF
:103888008C82A882C3950EE4950F405FE8650E70A0
:1038980002E50F70047C008022851882851983E078
:1038A800FAE50E2AFAE50F3400FBC3EA98EB940018
:1038B8005003E08005E50ECCC39CFCEC850A8285AC
:1038C8000B83F08C0A750B00780A1219B3850C82E9
:1038D800850D83E0250EFCA3E0350FFDAA08AB0992
:1038E80012102674021217460239B37510070239EE
:1038F800B3E50E450F705A850C82850D83123CD1B5
:10390800850A82850B8374071226361239C8122657
:1039180036A3E0851282851383F0E82402FAE9349D
:1039280000FB8A828B831239C81239F71239D0A367
:10393800123A001239D9F0E82405F8E93400F98878
:103948008289831239D9A3123A1CA3A3A3A3F080B6
:103958005A75100B8055741D12177C12321E1207EF
:10396800B68A828B83E5824583603D123CD1880C00
:10397800890DE8450D6031780E1219B3780A1219CD
:10398800B378081219B3740612177CE0F9EEFCEF4D
:10399800FDAA16AB17850C82850D8312179E740637
:1039A800121746E9F510800375100EA91074051258
:1039B80017467F10021872E0F50E750F00780E2278
:1039C800E085088285098322123A2622123CD5E82E
:1039D80022123A26A3A322E0F508A3E0F5092285DE
:1039E8000C82850D83E0F8A3E0F5838882E022A3AA
:1039F800A3F08A828B83A322F088828983A3A3A35E
:103A0800A322F08A828B83123A1322E0F50A750BFF
:103A180000780A22F088828983A3123A2622E08558
:103A28000882850983A3A32274EE1217A074FE12DC
:103A380017308A0A8B0BECFAEDFB741412177CE032
:103A4800F510A3E0F511741612177CE0FE74181235
:103A5800177CE0F50EA3E0F50F851882851983AC75
:103A680082AD831206E48A0C8B0DEA450D60498508
:103A7800188285198312321E1207B68A828B83E553
:103A8800824583602FA3A31239DFE5084509602426
:103A9800780E1219B378101219B3EEF9AC0CAD0DFB
:103AA800AA0AAB0B85088285098312179E74041233
:103AB80017468006790E80027901022EB874F61234
:103AC80017A074FE121730740C12177C1239D485A3
:103AD8001882851983F0740112177CE9F0E4F5085F
:103AE800F50978081219B375080278081219B37421
:103AF8000412177C85820885830978081219B31285
:103B0800080A74061217467402121746806874F77A
:103B18001217A0EAFEEBFF89087C197D0312082220
:103B2800EA5402600BA908EEFAEFFB1206D88002ED
:103B3800790102253274F61217A074FF6A700374B3
:103B4800FF6B70168C828D83123B83E4F08C828D20
:103B580083A3A3A3123B83A380181207F28A088BBE
:103B680009A808A909E849600D8882898374FF12A9
:103B78002634A3A3E4F07F0202187274FFF0A3F0C6
:103B88008C828D83A3A32274F61217A01207F28ADF
:103B9800828B83E58245836006A3A3E0FA80027ADC
:103BA800007B0080D174F21217A08A088B09ECFE02
:103BB800EDFF740E12177CE0F50A1207F28A0C8BDF
:103BC8000DA80CA90DE8497026EEFCEFFD7AFF7BE5
:103BD800FF1207F28A0C8B0DA80CA90DE849700496
:103BE8007911801688828983E508F0A3E509F088B1
:103BF800828983A3A3E50AF079007F06021872740C
:103C0800EE1217A0EAFEEBFF8C088D09890C7414DC
:103C180012177C123CD1741612177C12321E750DC5
:103C280000E8496003023CC57402650C6003023C6D
:103C3800C0741212177C123CDBFCA3E0F9EC2400E0
:103C4800F50EE439F50FEAF4F8EBF4F9EC58F8E579
:103C58000F59F9E849705CE5082406F8ED3400F9D5
:103C6800880A890B8882F583123CE61208228A109A
:103C78008B11E50E65107004E50F65116042780E32
:103C88001219B3850A82850B83123CE61208287440
:103C980002121746E9F50D7027780E1219B3850838
:103CA80082850983A3A3123CE41208407402121708
:103CB80046800D750D808008750D0D8003750D0B00
:103CC800A90D02337D8E828F83123CD522E0F8A3A2
:103CD800E0F922123CD588828983E022A3A3E0FC84
:103CE800A3E0FDEEFAEFFB2274E81217A074E712C6
:103CF8001730851882851983EAF0A3EBF08C168DAE
:103D080017890E750800750900743112177CE0F5E3
:103D180012A3E0F513743312177CE0F514A3E0F551
:103D280015743512177CE0F50FE50975F003A4F852
:103D3800A9F0851882851983123E5AE0F47003A30E
:103D4800E0F47003023E3DEE2402F50CEF123E5003
:103D5800E07003023E3D85160A85170B780A121992
:103D6800B3AC14AD15AA12AB131207AA740212173A
:103D7800468A0A8B0BEA450B7003023E3DE4F510B8
:103D8800F51178101219B3740612177C8582108504
:103D9800831178101219B3740912177C8582108563
:103DA800831178101219B3851282851383A3A3A3F4
:103DB800A31219CA7914AC0AAD0B8E828F83123202
:103DC8001E1208047408121746E97069850A82856C
:103DD8000B83A3A3A3A3123CD1740212177C123441
:103DE8008C850C82850D83E0A2E05018A90E740220
:103DF80012177CAC82AD838E828F8312321E12061C
:103E0800FCE94208850C82850D83E0A2E15026E595
:103E18000FF50A780A1219B7A90E740312177CACA9
:103E280082AD838E828F8312321E1206F6740112BF
:103E38001746E942080509E509C394025003023D03
:103E480031A90874190239B73400F50D850C82F5CB
:103E58008322E028FEA3E039FF8E828F832274F24A
:103E68001217A0EAFEEBFF890B7401650B600E7454
:103E780002650B706A7901120A08E97062EEFAEFBE
:103E8800FB1207EC8A088B09EA45096047750A00A6
:103E9800800B7C177D00790012103E050A9002E61F
:103EA800E0F8E50AC3985021E50A75F017A4F8A9C7
:103EB800F0850882850983A3A3E028FAA3E039FBEB
:103EC8008A828B8312278670C98508828509837444
:103ED800FFF0A3F07C197D03EEFAEFFB12081C0239
:103EE8003C0274F21217A08A088B09ECFEEDFF74ED
:103EF8000E12177C123567900A36E0F4603D7A0995
:103F08007B00121050EA4B60328A828B8374B1F0C6
:103F1800A3E41239F9A31239F7A3E508F0A3E509D8
:103F2800123F46EEF0A3EF123F46A3A3E50AF0A323
:103F3800E50BF0900A36E0F912105C023C02F08AB8
:103F4800828B83A3A3A3A3A32274F01217A074FAED
:103F58001217308908ECFEEDFF7509008A0A8B0BF1
:103F6800780A1219F70004107941943FB23FCC3F08
:103F7800E43F02401A403D4055406940934010419B
:103F880021413841534179417941A940740165087B
:103F980060030241748E828F83E0F8C39403400368
:103FA800024174E8900B22024150740265086003D4
:103FB8000241748E828F83124921900B23E8F0A36B
:103FC800E90241507401650860030241741241A17D
:103FD8004003024174E89007660241507401650885
:103FE80060030241748E828F83E0F8C39405400316
:103FF800024174E890076702415074016508600344
:104008000241741241A14003024174E8900768021A
:104018004150741065086003024174750A10750BED
:1040280000780A1219B37A697B07121026740212F3
:10403800174602419A7401650860030241741241EF
:10404800A14003024174E890077902415074016568
:104058000860030241748E828F83E0900B26024130
:10406800507404650860030241748E828F83780C53
:104078001215E8909063780C12141B5003024174D7
:1040880090077B780C1215F702419AE96003024108
:1040980074120684E970051211BE805690080E80CD
:1040A80063740765086003024174750A06750B009E
:1040B800780A1219B38E828F83A3AC82AD837402FF
:1040C80012178E12102C74021217467C007D00AA5B
:1040D80018AB198E828F83E0F912116AE9F50AC3C9
:1040E800940A4003024197120684E9700CA90A1247
:1040F80011C47950121338806E740F250AF582E4C2
:104108003408F5837401804074016508705E1241BB
:10411800A15059E890077A802F74016508704D8E78
:10412800828F83E0F8C3940A5042E8900B258018E8
:104138007401650870368E828F83E0F874F928C39D
:10414800940A5028E8900B27F0804774016508709E
:104158001B90080DE0F88E828F83E090080DF0E840
:104168007030E06401702B1211B280267509188036
:1041780021C3EA9427EB9400501574026508700F68
:104188008E828F83124C44120522E9F5098003754B
:104198000902A90974060245818E828F83E0F8C35B
:1041A800940222740E1217467F0402187274F012D9
:1041B80017A074B11217308C0E8D0F908FEA7420EF
:1041C8001217967406121643742012179612116A63
:1041D800E9F50B745F12177CE0F50CE9C3940A400B
:1041E8000302433375F006E9A4F5097441121796E2
:1041F8007A0E74202509F9121332E97009744D12E8
:10420800177CE0FE80027E00900B22E064027005BD
:1042180075080180037508007408650C7004742221
:10422800800274212509FF7C1B7D00790074261209
:10423800178E12103EEEA2E0E433F50A7426121728
:10424800967A1BEFF9121332E97025744012177C25
:10425800E024F9C3940A501878081219B774271281
:104268001796A90AAA0EAB0F1205C47401121746B5
:104278007C147D007900740C12178E12103E740C99
:104288001217967A1074242509F9121332E970303E
:104298007C1079FF740C12178E1210A4E970217427
:1042A8001C12177CAC82AD837A0474252509F91297
:1042B8001332740C121796A90AAA0EAB0F1205AC8A
:1042C800AC18AD197A0C7470250BF9121332E97019
:1042D80049AA18AB1912119A7F00EF75F003A4F8D8
:1042E800A9F0851882851983E58228F8E583124AA2
:1042F80049124C3E601D88828983A3A3E0F50875A6
:10430800090078081219B3AA0EAB0F12081074022C
:104318001217460FEFC3940440C0EEA2E1500C9070
:104328000765E0F9AA0EAB0F1208167404650C7045
:1043380027900B22E06402701F7A00900779E060F2
:10434800010A900766E06004780480027800E84A71
:10435800F9AA0EAB0F12066C7900744F02458174EE
:10436800F11217A074F01217308A0C8B0D8C088D7F
:10437800097E0AE9600C14600914603A1460750239
:10438800444D1211ACE9FEC3940A400302444DE5C2
:10439800084509700302444D750A06750B00780A32
:1043A8001219B3AC0CAD0DAA08AB09121026740291
:1043B80012174602444D7F00750A06750B00780AED
:1043C8001219B3AC0CAD0DEF75F00EA4F8A9F0748A
:1043D8008728FA740739FB1210387402121746E955
:1043E80070090FEFC3940A505C80CDEFFEC3940AA6
:1043F800505380427F00AC18AD197A1075F006EF63
:10440800A42423F9121332E9701C7C1079FFAA182E
:10441800AB191210A4E9700EAC0CAD0DAA18AB19AB
:1044280012058EE960090FEFC3940A501880C7EF90
:10443800FEC3940A500FE50845096009AA08AB09AC
:10444800EEF91211A6EEF974101217467F0702183A
:104458007274F41217A0E9FF7E1574FF6A70037472
:10446800FF6B7028750800EFFC7A027B00A9081220
:104478001188E960027E000508E508C3940A40E750
:10448800EF604E7AD67B11120A1A80451209FC8A0F
:10449800088B09EA450960387C007D00EA2405FAA2
:1044A800E43509FB850882850983A3A3A3A3E0F962
:1044B80012116AE9C3940A500BEFFC7A027B0012CE
:1044C80011887E00EF600AAA08AB091211D6800194
:1044D8001EEEF90241B074F21217A08C088D097E05
:1044E80015740E12177CE0F50AA3E0F50B74FF6A49
:1044F800700374FF6B701D7F00AC0AAD0BAA08AB8C
:1045080009EFF912118EE960027E000FEFC3940AD9
:10451800503B80E51209FC8A828B83E582458360E3
:104528002B7C007D00E5822405FAE43583FBA3A3F8
:10453800A3A3E0F912116AE9C3940A5010AC0AADBA
:104548000BAA08AB0912118E7E0080011EEEF97FBE
:1045580006021872C082C08390077FEAF0A3EBF0CE
:10456800900765E0FC7D007A267B00120522900703
:1045780065E0F912078C0250441217467F080218AA
:104588007274F01217A074EC121730EAFEEBFFEE0B
:10459800240CF50CE43FF50DEE2405F50EE43FF58B
:1045A8000FEE2409F50AE43FF50BEE2403F508E4C1
:1045B8003FF5098E828F83A3A3E024FA7003024893
:1045C8004524FD70030247631470030246601460BB
:1045D8001024FD700302473A14700302479A0248F8
:1045E8009C125346604AE0F5838882E0F50EA3E00A
:1045F800F50FE50E450F6038850C82850D83E0F5D3
:104608000C780C1219B7EE240BF582E43FF583E021
:10461800F9850A82850B83124C440A0A0AAB09857C
:104628000E82850F8312179E740112174602489C4A
:10463800850A82850B831219CA90077B1216061207
:1046480005BE7402121746E9700302489C79018579
:104658000A82850B830248108E828F83A385820A83
:1046680085830BE0600302471D850E82850F83E07A
:10467800A2E0400302471D90081912534960030243
:10468800471D7C0E7D007900AA18AB1912103E85D3
:104698000C82850D8312500FEA4B6010750C06755D
:1046A8000D00780C1219B3EA2410801B125009125D
:1046B80009FCEA4B700302489C750C06750D0078DE
:1046C8000C1219B3EA2405FCE43BFD740212178EA0
:1046D8001210267402121746850E82850F83E0A2F7
:1046E800E25004D2F08002C2F0A2F0E433F8740C75
:1046F80012177CE048F0EEFCEFFDAA18AB19121176
:10470800A0E970117A027B00900765E0F912108029
:10471800790002489E125346700302489C1248A32F
:10472800700302489C850A82850B83E0FC790102AC
:104738004839125346700302489C124FCE890BE841
:10474800450B700302489C8E828F83A3E0FC79029C
:104758001250098882850B830248407C007D00EE58
:104768002404FAE43FFB850882850983E0F91211E5
:104778006AE9F8C3940A400302489CEE240AFCE460
:104788003FFD7A0475F006E8A42425F912132C02DB
:10479800489C12500990077AE06007900B25E0F9D1
:1047A8008069900B22E070047905805F1209FC8A09
:1047B8000C8B0DA80CA90DE82404F50CE439F50DB3
:1047C8008E828F83A3A3A3A3A3A3A3E0A2E0504157
:1047D800E849700302489C850C82850D83E0FE60E1
:1047E80030850A82850B83E054107025740E1217E9
:1047F80096E82405FAE439FBEEF912116AE970111A
:10480800790385088285098312500F1205B802487A
:104818009CAC0EAD0F850C82850D83E0F912500912
:104828001211E2125346606C1248A360677C00794B
:10483800001250098E828F8312179E8057120684A9
:10484800E9705190080EE0640170151211BE9008CD
:104858000EE4F07C0AFDF97A0F7B0812103E802CDA
:10486800750A00850A08740F2508FEE43408FF8ECF
:10487800828F83E06401700BA90A1211C48E828FA3
:1048880083E4F0050AE50AC3940A40D77950121365
:10489800381211B279017414024581124FD2E8FE20
:1048A800E9FFEE4F2274F41217A074F2121730EADF
:1048B800FE8C0975F006E9A42420F508AC18AD199A
:1048C8007A0EF9121332E9704B7C0679FFAA18ABFD
:1048D800191210A4E9703D740C12177C124921E8D2
:1048E800F50BE5096005EE420B8004EEF4520B85EA
:1048F8000B82AA82E86A7001E96015740C12177CB1
:10490800EAF0A3E4F0AC18AD197A0EA90812132C3A
:104918007901800279000241ABE0F8A3E0F9227442
:10492800F21217A074E612173089098A0C8B0DEC65
:10493800FEEDFF740C1217967A0E75F006E9A424A2
:1049480020F9121332E96003024A0C7C0679FF74DD
:104958000C12178E1210A4E96003024A0C74702519
:1049680009F508AC18AD197A0CF9121332E960038D
:10497800024A08AA18AB1912119AE50C450D701DC8
:104988007C0C7900AA18AB191210A4E970727C0C7F
:104998007D007900AA18AB1912103E8051AC18ADF1
:1049A80019AA0CAB0D1211948A0A8B0BA80AA90B31
:1049B800E8497022EE4F604CAC18AD197A007B00C4
:1049C800121194EAF8EBF9EA4B603988828983E599
:1049D8000CF0A3E50DF0124A85FAEE6A7001EF605B
:1049E8001FEEF04F700888828983E4F0A3F0AA18BC
:1049F800AB1912119AAC18AD197A0CA90812132C1C
:104A0800790180027900741A12174602455774F723
:104A18001217A07F00EF75F003A4F8A9F0EC28F8AE
:104A2800ED124A49E06A7003A3E06B7006E8FAE900
:104A3800FB800B0FEFC3940440DB7A007B00024D30
:104A48008139F9888289832274F71217A07E00EED3
:104A580075F003A4F8A9F0EA28F8EB124A49E0F443
:104A6800FCA3E0F4FD88828983ECF0A3EDF0124A00
:104A780085F4F00EEEC3940440D5024D81E824027B
:104A8800F582E439F583E02274F41217A074F41265
:104A98001730EAFEEBFF8C0A8D0B90081912534968
:104AA800704FEE4F7003024C1FEC450B7003024C25
:104AB8001F1211ACE9900B28F0C3940A4033750813
:104AC800007C0679FFE50875F00EA4FAABF0748156
:104AD8002AFA74073BFB1210A4E96003024B78051D
:104AE80008E508C3940A40D975090AE509900B2816
:104AF800F0900B28E0C3940A4003024C1F75F0069F
:104B0800E0A4F890081912500FEA4B7069EEFCEF18
:104B1800FD7A0E742028F912132C7C0C7D0079FF85
:104B2800AA18AB1912103EAC18AD197A0C900B28C4
:104B3800E02470F912132C75080E75090078081214
:104B480019B3EEFCEFFD900B28E075F00EA4F8A960
:104B5800F0748128FA740739FB12102674021217B0
:104B680046900819E50AF0A3E50BF07900024C21FC
:104B7800850809024AF3124C262406124C3860199B
:104B88007A1B742128F912132C124C2F2406F58253
:104B9800E438F583E4F0A380D1124C26240A124CA1
:104BA8003860107A1B742228F912132C124C2F2407
:104BB8000A80DB124C26240C124C3860107A1074D0
:104BC8002328F912132C124C2F240C80C1124C26C6
:104BD8002408124C3860347A10742428F912132CE3
:104BE800124C2F2408F582E438F583E02410FCA346
:104BF800E03400FD7A0475F006900B28E0A4242523
:104C0800F912132C124C2F2408808390080DE060B1
:104C1800031211E81211DC7901740C0241AD9008FD
:104C280019E0F9A3E0C922900819E0F8A3E0C82226
:104C3800F582E439F583124C44EC4D22E0FCA3E004
:104C4800FD2274F41217A074F2121730EAFEEBFF7B
:104C5800E9C3940A5004EE4F700479028034AC180A
:104C6800AD197A0E75F006E9A42420F9121332E979
:104C7800F508701C750A06750B00780A1219B374CA
:104C880002121796EEFAEFFB12102674021217465C
:104C9800A9080241AB74F41217A0EAFEEBFF7508ED
:104CA80000750A06750B00780A1219B3EEFCEFFDC1
:104CB800E50875F00EA4F8A9F0748128FA7407398C
:104CC800FB1210387402121746E96004A908800B19
:104CD8000508E508C3940A40C8790A0241B074F788
:104CE8001217A0750800E50875F00EA4F8A9F0746D
:104CF8008128FE740739FFEEFCEFFD7A0E75F00689
:104D0800E508A42420F9121332E960297C067D0005
:104D180079FFEEFAEFFB12103E7C067D0079FFEE7C
:104D28002CFAE43FFB12103EEE240CF582E43FF52A
:104D380083E4F0A3F00508E508C3940A40A89008A6
:104D48000DE060031211E81211DC802D74F71217C0
:104D5800A07E007F007C0679FFEF75F00EA4FAAB09
:104D6800F074812AFA74073BFB1210A4E970010E53
:104D78000FEFC3940A40DEEEF97F0102187274F750
:104D88001217A07E00EEF91211C40EEEC3940A5059
:104D980003E960F180E374F31217A074CB121730A3
:104DA800E9FF900B28E06F701B7A017B0090076584
:104DB800E0F91210867A027B00900765E0F912107C
:104DC800861211F475F006EFA4FE74202EF508740F
:104DD800271217967A0EA908121332E96003024EB9
:104DE800A47C0679FF742712178E1210A4E96003B9
:104DF800024EA47C0E7D0079FF742712178E1210C4
:104E08003E7C1B7D0079FF740C12178E12103E7CBD
:104E18000C7D0079FFAA18AB1912103E74271217DF
:104E2800967A0EA90812132CE9F508740C12179635
:104E38007A1B74212EF912132CE9F50C740C121735
:104E4800967A1B74222EF912132CE9F50B740C12A6
:104E580017967A1074232EF912132CE9F509740C9D
:104E68001217967A1074242EF912132CE9F50A7485
:104E78000C1217967A0474252EF912132CE9FEAC3D
:104E880018AD197A0C74702FF912132CE9F8E50C87
:104E9800450B4509450A4E4842088003750800A994
:104EA8000874351217467F0502187274F71217A096
:104EB800E9900765F01211B2024D8174F41217A03F
:104EC800EAFEEBFF54807003024F5B900765E0F940
:104ED8001210688A088B09EA4509607078018A828D
:104EE8008B83E02450603D14600624E1604F8052BB
:104EF800A3A3A3A3E0704E8A828B83A3A3A3A3A337
:104F0800A3A31219CA8A828B83A3A3A3A3A3124CB7
:104F1800448A828B83A3A312500F12117674021253
:104F280017468021A3A3A3A3E0641E701879008A02
:104F3800828B83A3A312500F121170800812118262
:104F4800E9F8E86007AA08AB09121056EEFAEF6410
:104F5800808065EE540260237C007D007A007B002F
:104F68001211A0E960117A017B00900765E0F9123F
:104F78001080EE6402803F7A028046EEA2E0503F45
:104F8800124FDF12500F1211EEE9602F12534660D4
:104F98001F124FCE88088909E8450960137C0079FB
:104FA80001124FDF12500F85088285098312179E60
:104FB8001211F4EE6401FAEFFB80087A0180027A9C
:104FC800007B000241B0124FD222E0F5838882A311
:104FD800A3E0F8A3E0F922900819E0F8A3E0F5832C
:104FE8008882A3A3A3227F02021872C082C0839082
:104FF8000765E0F98A828B83A312500F1208168086
:105008003B850882850983E0FAA3E0FB22C082C0C1
:105018008374FF1217301211B8E9C39402851882FD
:10502800851983400474028002740AF0AC18AD1923
:105038007A01790512069C7401121746D083D08232
:1050480002011F74F41217A074E81217308A088B33
:1050580009E9FE8C0A8D0B7C187D007900AA18AB33
:105068001912103E851882851983E508F0A3E50911
:10507800F0900767E0C0E0740212177CD0E0F0906F
:105088000768E0C0E0740312177CD0E0F0900B27AB
:10509800E0C0E0741712177CD0E0F0741512177C8A
:1050A800E054FEF8A3E0F9900B26E0A2E0E433FA1E
:1050B800E84AF8741512177C1251E6A2E15004D29E
:1050C800F08002C2F0E854FDFAA2F0E43325E0F8DB
:1050D800EA48F8741512177C1251E6A2E35004D27C
:1050E800F08002C2F0E854F7FAA2F0E433F508754C
:1050F80009007403780812171D1251DF12177C1269
:1051080051E6A2E45004D2F08002C2F0E854EFFA6B
:10511800A2F0E433F5087404780812171D1251DF61
:1051280012177C1251E6A2E55004D2F08002C2F0B8
:10513800E854DFFAA2F0E433F5087405780812178A
:105148001D1251DF12177C1251E6A2E25004D2F070
:105158008002C2F0E854FBFAA2F0E433F5087402C6
:10516800780812171D1251DF12177CE8F0A3E9F036
:10517800900768E0601D75081078081219B37C69FB
:105188007D07740612177CAA82AB8312102674025C
:10519800121746900779E06010EE6009741512172F
:1051A8007CE04402F0780180027800741412177CC5
:1051B800E048F0900766E0600478048002780074A4
:1051C8001412177CE048F0AC0AAD0BAA18AB191200
:1051D80005B274180241ADEA4508F8741522E8F0E2
:1051E800A3E9F0900B26E02274F71217A012088E9C
:1051F800750800E50875F00EA4F8A9F0748128FE7A
:10520800740739FF7C0679FFEEFAEFFB1210A4E968
:105218007009EEFAEFFB79001208940508E508C357
:10522800940A40CF024D8174F61217A074FD12172C
:1052380030EAFEEBFF90081B125349703975081DC0
:1052480075090878081219B37508027509007808F5
:105258001219B375088D75099078081219B37CFF77
:105268007DFF7A017B001206DE740612174690084D
:105278001BEAF0A3EBF090081B125349700302538A
:1052880030E4F508F50978081219B3740412178682
:105298008808890978081219B374041217868808CF
:1052A800890978081219B390081D1219CA79029051
:1052B800081B12533E1208047408121746E9703688
:1052C800851882851983E0FA740112177CE0F8E4E6
:1052D800C8F9EA28F508E439F509EA4509601778B4
:1052E800081219B390081B124FE2A312533E121171
:1052F800767402121746E4F508F50978081219B30E
:1053080090081D1219CA7CFF7DFF90081B12500FD0
:105318001206EA740412174690081BEAF0A3EBF091
:1053280090081B12534970047901800279007403B4
:10533800121746024FEE124C44EEFAEFFB2290078A
:105348007F124921E84922C082C08390081912536C
:1053580049601090081912500F121056900819E45D
:10536800F0A3F0900B28740AF0025044C082C08366
:105378009061907404F0A37448F0A3E4F090618005
:105388007440F09061BC7407F09061877469F09084
:1053980061B67416F07900120B0A7902120B10909C
:1053A80024E8E493F46006E493F9120AE679051216
:1053B8000E0A02576FC082C083E9540FF9906185C5
:1053C800E0696012E5C654804449F5C6E59E547FFD
:1053D800644970F8E9F053C680E59E547F70FA027C
:1053E800576F74F71217A0E5A8FE53A87E120AF2A9
:1053F800C2BA539AFEC289759B00C2C2120AF875D6
:10540800A91175B905120AFED2BA439A0174805ED1
:1054180042A8025D06C082C083906181E4F0A302C5
:10542800576C75E90075910075BF0002011FC082B5
:10543800C083906181E4F0A374C0F0A3E402576EC6
:10544800C082C08374F81217309003A412669F704C
:10545800030255279003A4E0544060237908851877
:1054680082851983AA82AB83120C06851882851956
:1054780083AA82AB831208B89003A4E054BFF0E07B
:1054880054806010790C7A657B05120C069003A491
:10549800E0547FF0E0A2E0500F7900120B0A1208E6
:1054A800BE9003A4E054FEF0E05402600F790112AC
:1054B8000B0A1208BE9003A4E054FDF0E054046007
:1054C8000F7900120B101208C49003A4E054FBF0EB
:1054D800E05408600F7901120B101208C49003A45D
:1054E800E054F7F0E05410600F7902120B10120824
:1054F800C49003A4E054EFF0E05420600F79031245
:105508000B101208C49003A4E054DFF0A3E0540188
:10551800600D120B1C1208CA9003A5E054FEF0742B
:105528000812174602576FC082C083E960051460ED
:105538002A804F90619A7433F0A37455F09061A05B
:10554800743AF090053FE064017009C2919003A697
:105558007467802D9003A67461802690619A743FC9
:10556800F0A3745AF09061A0747FF090053FE06456
:10557800017009D2919003A6747180059003A674F6
:105588006AF002576FC082C083E9600B14600D1483
:10559800601714600C80209024EC80159024ED8016
:1055A8001090053FE0640170059024EE800390247C
:1055B800EFE493906186F002576F74EE1217A074AF
:1055C800F4121730851882851983AC82AD837583F0
:1055D8009075823374041216439024EC93F460039C
:1055E8000256EC907808E0C3940250030256CC743B
:1055F8000412177CAC82AD8375838F7582C67408DC
:10560800121643FC7EFF7FFF8E0C7D008C82858204
:105618000E800F74086D606D74096D6068740A6D92
:1056280060638D087509007402780812171D1256F8
:10563800F61215E8A909E50AC9F888107418780857
:10564800121529E5104508FAE9FBE50EC333F8E41D
:1056580033F9740412177CE58228F582E583391240
:105668005BF6C3E89AE99B4008E8C39AF8E99B808F
:1056780006EAC398F8EB99F9C3E89EE99F5006E853
:10568800FEE9FF8D0C0DEDC39413408774FF6E7017
:105698000374FF6F6024850C087402780812171DC4
:1056A8001256F61215E8851882851983E582250EAB
:1056B800F582E583126095E508F00CECC39404507C
:1056C8000302560C75080175090078081219B3749D
:1056D8000212177CAC82AD837A3B7B0912123C74B0
:1056E80002121746740C1217467F0A021872744881
:1056F8002508F58274783509F583780822C082C0B8
:1057080083906186E0F89024EFE493687009902410
:10571800EEE493906186F09061AE7468F0A3746AC9
:10572800F090624574FBF0A304F053F4FD43FE02CD
:1057380090053F7401F09061A0E0643A700479002C
:1057480080027901120B0A02576FC082C08390044D
:10575800F1E06401700A9004F6E06004790C8002BC
:1057680079008003F0A3F0D083D08202011FC082A9
:10577800C08375E1F19004F4E0604D146009146091
:1057880051146049147050120B2E9004EAE0F97A13
:10579800EB7B04120D8C909037121606120DC290F6
:1057A8009027121606120D989004F5E0F9120DA430
:1057B8007901120DFE12589224161260927446F066
:1057C800A3740BF07900809F120B3480BD120B3A42
:1057D80080B8120B4080B3791280EB74F41217A0D2
:1057E80075D90D9004D5E0A2E0E4331313F81258EC
:1057F80088484401F5D978001258F540FB780088AC
:105808000874D61265F574041258FF40F275E195D4
:105818009004D5E0F97AD67B04120D92900A587458
:10582800BCF0A3740A125905125949125940125A68
:105838005D9004F4E064019004E8700B12589B1228
:1058480015E8909067800912589B1215E890901FF0
:10585800780812157490902B78081215C212589275
:10586800240E12609278081215F712589224141216
:1058780060927413F09003A27402F07F040218720D
:105888009004EAE0C4333354C0229004E8E0F8A35B
:10589800E0C82212652D78082274F61217A0125A51
:1058A8002E8AD978001258F540FB780080061259E4
:1058B800A6125AE3E8C39940F5125A201258F54047
:1058C800FB780080081265F17405125AE3E8C39961
:1058D80040F375E195900A5874C8F0A3740A1259F8
:1058E8000512590F7412F09003A2025CCA8808745A
:1058F800EB2508F5827404125C60940622125A465D
:1059080074C2F0A3740A22125949125940125A61FA
:105918009004E8E0F8A3E0C8240E12593874FF1286
:10592800636A9004E8E0F8A3E0C824141259382206
:10593800F582E83400F58322F0A374DAF0A3740A40
:105948002212594D2212595122F0A37472F0A374F5
:105958000C2274F61217A012599B1258884402F5AB
:10596800D978001258F540FB780080061259A61223
:105978005AE3E8C39940F575E195900A581259B170
:10598800F0A31259B11259127414F09003A27404BE
:10599800025CCC9004FAE0F9740729F5D92288084A
:1059A80074FB2508F58274042274D41259BE125966
:1059B800BEF0A3740A22F0A3740AF0A374D422746C
:1059C800F61217A0125A2E74064AF5D97800125802
:1059D800F540FB780080061259A6125AE3E8C399ED
:1059E80040F5125A201258F540FB780080081265DD
:1059F800F17405125AE3E8C39940F375E195900AEA
:105A08005874CEF0A3740A125A3C12590F7415F048
:105A18009003A27403025CCC90051A12599E740478
:105A28004AF5D978002212599B9004EAE0C433332E
:105A380054C0FA22125A467472F0A3740C22125AF5
:105A48004A22125A577472F0A3740C125A5722122F
:105A58005951F0A322125A6122F0900A667472F02A
:105A6800A3740C125A4A7472F0A3740C12594DF0B4
:105A780022C082C0831258922406126092E4025710
:105A88006C74F71217A09003D0E0F875F003A4C85F
:105A9800AAF02AF974D228F8740339F9E82405FA27
:105AA800E9126540A3A3A3A3A3A3A3A3A3126641DA
:105AB800A3A3A3A3A3A3A3E024FFF8A3E034FFF9BF
:105AC8008A828B83E8F0A3E9F0025D067F0602185C
:105AD80072880874452508F582740512606CF5D93A
:105AE8000822EAFEEBFF9061D0E0F87480C398FAD0
:105AF800EE248222125B02940422F582E93400F536
:105B080083E0F5D90AEAC32274F61217A0EAFEEB7D
:105B1800FF9061D0E06003025BA475D90E75D903CC
:105B280075D9047A008A08EE25081265FA248B12C2
