:020000040000FA
:0600000002011D02267A38
:03002B000223BCF1
:030053000226F092
:03006B0002236A03
:03007B00022384D9
:1000830002256BE5C754F84401F5C7790122000046
:100093000080FB120086B90003020107E47921788E
:1000A30008B800028004F709D8FCE479297802B87B
:1000B30000028004F709D8FCE490028178FC7907F8
:1000C3008002F0A3D8FCD9FA781A90014D7A01BACC
:1000D30000028007E493A3F608DAF990097CAA8268
:1000E300AB8390014E780F79048015E493A3AC821F
:1000F300AD838A828B83F0A3AA82AB838C828D83A8
:10010300D8E9D9E77582337583CB740312012F7550
:100113008291758300740012012F75D00075813FA1
:10012300751881751902759F00020096C09FF59F8F
:10013300E473D09F22D083D082C09FE493C0E07445
:100143000193C0E0740293F59F2201FFFF0A095354
:10015300656E736F72416363051206000600020A3F
:1001630004020105544920424C452053656E736FC8
:100173007220546167001400A6050000B8051241FF
:100183006363656C2E2044617461000A4163636597
:100193006C2E20436F6E662E000A4163632E20503F
:1001A3006572696F6400027D900100006C900279B2
:1001B30090010000AF0910B38E010000AA0202757E
:1001C30090030000B202027790010000B0090279A7
:1001D30090010000BC0910238F030000B8020277CE
:1001E30090010000BD09027990010000CA091013B3
:1001F3008F030000B902027790010000CB090202CD
:1002030002020202020202010D0000001001027D3F
:100213009001000069900279900100002F0A029575
:1002230090010000BA02027990010000300A0293A3
:10023300900100008A8F027990010000310A029137
:1002430090010000858F027990010000330A028F2C
:1002530090010000918E027990010000340A028D12
:1002630090010000808F027990010000320A028B16
:10027300900100008F8F027990010000350A0289F6
:10028300900100007F8E027990010000360A0287F8
:1002930090010000438F027990010000370A028524
:1002A30090010000380A01E803053F108000008038
:1002B30070001249522054656D702E2044617461A0
:1002C300000A49522054656D702E20436F6E662ECE
:1002D30000027D900100006690027990010000E326
:1002E3000A10C38E010000E603027590030000EAC2
:1002F30003027790010000E40A027990010000F202
:100303000A10D38E030000F003027790010000F37C
:100313000AFF00013075030201060000000000001F
:1003230000000000000000000000000000000000CA
:10033300000000000000FFFF0600800CE803FF0040
:1003430000B4000028002800283075A000A000A0F9
:1003530000A00000080008E001F0001000100010E9
:10036300001000100010005000500050001000104A
:1003730000D0070000000000000F0001000500305E
:100383007507001000010081FF0000FFFE0A1C0B2F
:10039300040BFF02020208025000A0000000E80361
:1003A300027D900100006390027990010000C40B6C
:1003B300027390010000D104027990010000C50B83
:1003C300027190010000E704027990010000C60B5E
:1003D300026F90010000E904027990010000C70B4D
:1003E300029B90080000EA04027990010000C80B08
:1003F300027F90010000C90BFF0100FF20027D90E6
:1004030001000060900279900100002D0C0283909E
:10041300000000000002759003000037053A113A0E
:10042300113A113A113A113A113A113A113A113A71
:10043300113A113A113A11101428140A14F304351D
:100443003F000080BF0000803F1872313F2292D4EA
:100453003EDD9B2A3F040000401201383ED40212C5
:10046300013853D402120138ABD40212013812D529
:10047300021201385AD502120138D0D502120138BE
:10048300FFD5021201380DD60212013871D60212BD
:100493000138AFD602120138CAD60212013862D728
:1004A3000212013809D8021201388AD8021201381F
:1004B300C1D8021201384AD9021201389FD9021257
:1004C3000138FCD9021201380EDA0212013834DA8B
:1004D300021201383DDA0212013896DB02120138AA
:1004E300C3BE03120138A2BF03120138F6AD0312D3
:1004F30001383BAE031201387FAE0312013810B04E
:100503000312013832C6031201384DC603120138F3
:100513005DC603120138B4C60312013864C803125E
:100523000138F6E9021201380DEA0212013807EB2D
:100533000212013853EB0212013873EB0212013835
:10054300C4EB021201382FEC0212013873EC0212D1
:100553000138D1EC0212013879EF0212013802F0AE
:100563000212013881BD03120138B1BD03120138F3
:10057300E1BD0312013801BE031201385BBE031251
:1005830001382EB9021201386ABB021201384FBC7E
:100593000212013875BC02120138A0BC02120138E4
:1005A30050BD021201385EBD021201383CBE021278
:1005B3000138AABE0212013854C10212013805C221
:1005C3000212013881C2021201380F8E0312013860
:1005D300628E031201388B8E03120138438F03128C
:1005E3000138A68F03120138B690031201386192C5
:1005F3000312013839F5021201385EF5021201388F
:1006030099F502120138A3C903120138EC2C001228
:1006130001385F2F001201381F3100120138CA312F
:10062300001201386E32001201380733001201380C
:10063300363300120138973800120138423900125C
:100643000138B23A001201381A3B00120138CE3B8E
:10065300001201384E3D001201388D3D0012013861
:10066300013E00120138603E00120138BF3E001205
:1006730001382E3F00120138214000120138674033
:1006830000120138AC4000120138CF40001201388B
:100693001F4200120138324200120138A4420012F4
:1006A3000138DB42001201380743001201385A4374
:1006B300001201387B4300120138BF430012013896
:1006C300114600120138524600120138FD4600124D
:1006D300013868470012013881C40312013898C4F5
:1006E3000312013849C50312013804FF021201380D
:1006F30015FF02120138F0FF02120138FEC6031281
:100703000138A8C70312013880CC03120138FEBF99
:10071300031201380EC00312013825C00312013839
:100723002DC10312013866A80312013809A9031267
:10073300013825AB0312013833C10312013895C1C7
:10074300031201380DC20312013850C203120138DB
:100753000BCC0312013850CC031201389BCC03128B
:1007630001389ECC03120138A1CC03120138A4CC6A
:10077300031201389EB6031201386EB80312013812
:100783006EFE01120138A1FE011201381FFF011292
:1007930001383FFF01120138A4FF01120138ECFFB9
:1007A30001120138EFFF011201386A89031201387F
:1007B300838903120138188A03120138FB8A031252
:1007C3000138758D03120138B58D03120138F18D8F
:1007D3000312013877C3031201386FC403120138BF
:1007E300ECBB031201383DBC03120138C7BC031232
:1007F300013854BD03120138F87F0012013840ABB1
:100803000312013840AD03120138ACAD03120138B5
:10081300F3AD0312013807C903120138B9B4031247
:10082300013818B503120138C6B50312013845B6AD
:100833000312013846A20312013878A203120138C9
:1008430080A303120138A5A40312013886A402125F
:10085300013878A502120138BBA502120138F5A5AB
:10086300021201386AA602120138CBA6021201381D
:1008730048A70212013824A8021201382FA9021234
:100883000138B0A90212013857AB02120138EDAB9F
:100893000212013860AC02120138DCAC02120138DA
:1008A300F3AC021201382AAE0212013884AE0212EE
:1008B3000138EEA2011201385DA70112013822AA04
:1008C300011201384BAA0112013872AA0112013830
:1008D3001AAB01120138EDAC0112013828AE011236
:1008E3000138BFB201120138F8B2011201383CB32A
:1008F300011201384EB401120138BAC7031201388C
:1009030039BA0312013850BA031201387FBA0312FD
:100913000138B8BA03120138E0BA031201380EBB2A
:100923000312013825BB031201383CBB0312013803
:1009330052BB0312013879BB031201388CBB03127B
:100943000138A2BB03120138B5BB03120138DABB6D
:1009530003120138F0AE02120138EFAF0212013870
:1009630024B00212013845B00212013855B0021208
:10097300013876B00212013882B1021201384FB247
:1009830002120138C2B20212013848B3021201380E
:100993008BB302120138C2B30212013848B40212F7
:1009A30001381AB50212013878B50212013890B530
:1009B300021201380AB6021201380DB602120138CA
:1009C30010B602120138B7B602120138CFB60212BE
:1009D3000138FFB6021201381FB7021201380DB8F1
:1009E30002120138C3B802120138C284031201385B
:1009F300EA84031201381885031201384F85031264
:100A03000138B785031201380086031201384B867B
:100A130003120138898603120138C686031201388E
:100A2300F486031201389B8703120138A58703124A
:100A33000138B28703120138E58703120138A7880A
:100A430003120138B38803120138CB88031201382B
:100A5300D588031201385BC50312013869C5031237
:100A6300013881C50312013899C503120138B8D37F
:100A73000112013856D401120138CED401120138C3
:100A8300E3D5011201381DD601120138C6D6011271
:100A930001389BD701120138FFD80112013856D90A
:100AA30001120138DDD901120138C4DA011201380B
:100AB30011DB011201389FDB01120138C3DB011284
:100AC300013898DD01120138D9DD01120138FBDD4F
:100AD300011201387CDE0112013866DF0112013890
:100AE3002CE001120138EAE202120138BCE30212DF
:100AF300013865E402120138A8E40212013835E531
:100B030002120138C1E502120138A2E602120138CD
:100B1300D1E602120138CDE70212013815E80212BC
:100B2300013817E9021201385BE90212013881E941
:100B3300021201382DCA03120138DF9A0312013859
:100B4300F59A031201381B9B03120138439C0312CD
:100B530001384D9C03120138A69D03120138A69E4D
:100B63000312013813F00212013848F1021201385E
:100B73007BF102120138C5F10212013883F302122C
:100B830001380EB50112013871B501120138B6B63C
:100B930001120138C6B601120138E9B60112013853
:100BA30034B701120138D9B701120138CFB8011295
:100BB300013899B90112013811BB0112013853BB35
:100BC30001120138F1BB011201383EBC0112013898
:100BD30064BC0112013852BE0112013857BE011222
:100BE300013838C0011201388CC001120138EEC03F
:100BF3000112013816C101120138BAC101120138BC
:100C03007CC201120138ADC201120138B0C2011217
:100C13000138F8C2011201383AC301120138A1C3E5
:100C23000112013852B00312013865B003120138C2
:100C33007EB003120138C9B003120138A4B1031204
:100C4300013833B2031201387EB2031201387C48F3
:100C530000120138884800120138C14800120138D7
:100C6300064900120138BD4900120138434A0012F7
:100C73000138A84A00120138D44A001201380D4B3A
:100C830000120138214D00120138FD4E00120138C7
:100C9300E850001201381F52001201387F5400122D
:100CA30001386B5500120138B15600120138BE5796
:100CB30000120138DB5700120138135800120138B3
:100CC3002D58001201389558001201382F5D00127B
:100CD3000138D05D00120138215E00120138485EF0
:100CE30000120138965E00120138B45E001201381A
:100CF300085F00120138E15F0012013868610012D9
:100D03000138F061001201382FFA0212013839FA62
:100D13000212013804FB021201381FFB02120138D0
:100D230045FB0212013889FB02120138C1FB021292
:100D33000138EAFB0212013863FC0212013878FC25
:100D4300021201388DFC02120138C4FC0212013870
:100D5300D8FC0212013809FD0212013843FD0212C8
:100D630001386FFD02120138C5FD0212013814FE6D
:100D73000212013844FE021201388DFE02120138BC
:100D8300B7FE02120138DCFE02120138F396031299
:100D93000138BD9703120138A09803120138169940
:100DA30003120138589903120138859A0312013846
:100DB300E68C021201380F8D02120138288D0212BF
:100DC30001386D8E021201384B8F021201386A8F7F
:100DD30002120138F78F021201383A9002120138D9
:100DE300879102120138269202120138A594021249
:100DF30001383C9502120138109602120138F2961E
:100E0300021201385E9802120138F1980212013879
:100E130062C203120138CBC2031201381FC303128B
:100E2300013846C3031201389E92031201380B9313
:100E3300031201385693031201384B9403120138FD
:100E4300479503120138319603120138D0CB0212B1
:100E5300013812CC02120138ECCC02120138C5CD94
:100E630002120138C0CE021201389FCF021201389C
:100E73000BD002120138D2D0021201383DD1021236
:100E83000138A4D102120138CFD10212013840D265
:100E930002120138D3D2021201383CD302120138B4
:100EA30051D30212013899D302120138B2D302127C
:100EB300013817D4021201381AD4021201386CA572
:100EC3000312013894A503120138D2A50312013885
:100ED30090A603120138FBA60312013817A70312C9
:100EE30001383FA7031201386FA7031201387EA709
:100EF30003120138F8A7031201381EA803120138A0
:100F03006BC40112013808C601120138EEC7011281
:100F13000138B8C801120138FFC80112013846C9A7
:100F23000112013858C90112013898C90112013858
:100F3300C7C90112013813CA011201384BCA011281
:100F4300013879CA01120138CACA0112013859CBD2
:100F53000112013847CE0112013821D001120138A4
:100F63005DD001120138B7D101120138FED101124F
:100F7300013873D201120138C1D201120138F8D2FB
:100F8300011201385DD301120138CDC202120138BA
:100F9300EAC20212013884C80212013886C9021259
:100FA300013800CB02120138AECB0212013857626E
:100FB30000120138A06200120138CD62001201381C
:100FC3000063001201380D63001201381963001227
:100FD30001382B63001201380064001201385E648B
:100FE300001201389364001201382F660012013891
:100FF3007C6600120138A066001201380D670012EA
:101003000138B267001201386E6800120138ED68CA
:1010130000120138B16900120138C06900120138A9
:10102300416A00120138E06A00120138126B0012A3
:101033000138AD6B001201380B6C00120138456C9E
:1010430000120138C66C001201388F6D001201388E
:10105300386E00120138BF6E00120138176F00128C
:101063000138786F00120138A16F001201385770F0
:1010730000120138A17100120138E4710012013825
:101083000172001201382072001201386B720012D3
:101093000138907200120138B972001201382873B6
:1010A300001201386A73001201386E74001201389D
:1010B300087500120138D47500120138ED7500125D
:1010C30001381F76001201387276001201387E76DD
:1010D300001201385377001201387A770012013871
:1010E300B5770012013821780012013855780012C3
:1010F30001388E7800120138A67800120138FF7883
:101103000012013818790012013861790012013890
:101113007479001201388E7900120138A479001213
:101123000138C07A00120138D17B001201381E7DCC
:1011330000120138037E00120138ED7F00120138DE
:101143000080021201383480021201389F83021298
:101153000138E98402120138B385021201383D8750
:10116300021201381888021201385288021201381B
:10117300758802120138B78802120138C08802123A
:1011830001380A8902120138148902120138C08910
:1011930002120138948A02120138E88A02120138D5
:1011A3004A8B021201389D8B02120138CC8B02123A
:1011B30001380B8C021201389E9001120138F89805
:1011C30001120138FE9801120138B99E011201384B
:1011D3009FA201120138B09E03120138269F031209
:1011E30001383C9F03120138799F03120138B19FE4
:1011F300031201382EA00312013869A0031201382B
:10120300E4A00312013820A10312013829A103121B
:10121300013835A1031201384FA10312013874A11B
:10122300031201388AA103120138B3A10312013852
:1012330016A203120138008003120138138003122F
:1012430001382D800312013856800312013899802A
:1012530003120138D88003120138168103120138B2
:101263007B81031201389081031201389B810312A1
:101273000138A88103120138BF8103120138CD81DF
:1012830003120138D88103120138E48103120138B3
:10129300F7810312013802820312013825820312F7
:1012A3000138CE8203120138DE8203120138F8823C
:1012B30003120138158303120138318303120138F5
:1012C30056830312013860830312013874830312B7
:1012D3000138938303120138F48303120138FA832C
:1012E3000312013800840312013806840312013803
:1012F300128403120138458403120138E4F0011209
:10130300013866F1011201380FF20112013857F367
:101313000112013865F5011201384BF6011201384B
:1013230080F601120138A2F6011201384BF70112BF
:1013330001381BF90112013844F901120138BCF9D3
:1013430001120138EEF901120138FBF901120138DB
:1013530046FA011201386AFA01120138BBFC011284
:101363000138C5FD0112013821FE0112013861E285
:101373000112013872E30112013856E401120138F7
:1013830060E40112013882E4011201388EE4011293
:10139300013832E6011201385FE60112013875E7C0
:1013A30001120138CAE70112013819E901120138A3
:1013B300EEE9011201384AEA01120138B5EA0112D5
:1013C3000138EAEA011201382DEB01120138F7ED79
:1013D300011201380FEE01120138A0EE011201389B
:1013E300AEEE01120138FBEE0112013809EF0112D2
:1013F300013875EF01120138F0EF0112013847F09F
:10140300011201386899021201388A9902120138CF
:101413009B9B021201385A9E02120138849F0212CA
:10142300013842A0021201382EA10212013880B8FD
:1014330003120138A5B8031201381BB9031201388E
:10144300CDDB02120138D6DB02120138DFDB0212D8
:101453000138B7DC0212013868DE0212013898DE67
:1014630002120138C3DE02120138F3DE0212013820
:101473001EDF0212013852DF021201387EDF021230
:101483000138C1DF02120138ECDF0212013833E008
:101493000212013888E002120138CAE00212013850
:1014A30024E1021201384FE1021201389EE10212D7
:1014B3000138CEE102120138F9E10212013827E2C4
:1014C300021201384AE202120138B6CA0312013885
:1014D300E2CA031201380FCB0312013819CB0312EE
:1014E300013829CB03120138AACB03120138A8B261
:1014F30003120138C07F0012013862CC03E066702A
:101503001008A3E066700A08A3E066700408A3E06D
:101513006622C3E7960809E7960809E7960809E7EC
:101523009622C3E09608A3E09608A3E09608A3E0FA
:101533009622C008C3E096F50808A3E0964208087F
:10154300A3E096420808A3E09645087001D3D008AB
:1015530022080808E630E711121D9C12156C0808D2
:1015630008C64480C618181822181818E9799EC6A8
:1015730008CAC608CBC608CCC6C370207996CACBA6
:10158300CC7019798ECBCC70137986CC700EF98020
:101593002ACA33CACB33CBCC33CC331930E7F2CCA2
:1015A300CBCA3350147004EA30E00DE4CA3ACACB14
:1015B3003BCBCC3CCC500209C3E913C6CC18231354
:1015C300C6CB18C6CA18C6F92212160C20F014305E
:1015D300E72B74FFFCFBFA747F8022E4FCFBFA74B4
:1015E30080801AB48008BC00F2BB00EF800F50EB80
:1015F300F9E4C39AFAE49BFBE49CFCE499C6CC1897
:10160300C6CB18C6CA18C6F922E4C9C608CAC60892
:10161300CBC6D3330308CCC63392F0C3947F402E9A
:1016230094184019C9B90704CACBCC225025C30961
:10163300CA33CACB33CBCC33CC33D9F422F4600DC9
:10164300C9CCC313CB13CBCA13CAD9F6CC22E4FC3F
:10165300FBFA2214FCFBFA22E6C333184618461899
:101663004622E7C33319471947194722181818E6C2
:10167300084608700AE608C3337005E633F4220807
:1016830022191919E7094709700AE709C3337005D5
:10169300E733F4220922E6084608C31346083360F9
:1016A30002E633F422E7094709C31347093360020B
:1016B300E733F42212169960251216A86020121639
:1016C3005B7003021665080808E76670101819E7CF
:1016D30066700A1819E76670041819E76622F4227F
:1016E300121699601B1216A8601612165B70071269
:1016F3001665600CB322C0D01216657005D0D022D7
:10170300C32233D0D0501330E0EBC3E7960809E788
:10171300960809E7960809E7962220E0E4E6970889
:1017230009E6970809E6970809E697220012169931
:10173300604F1216A86012E7548066F612166F7097
:1017430011121665703B090909F4F618F618F61814
:10175300F622121684701512165B08080860EAE672
:10176300447FF618768018E4F618F62212165B60AA
:10177300161216657012E4F608F608F608E65480A9
:10178300F609090918181822EAC0E0EBC0E0ECC01A
:10179300E0EDC0E0E687F0A4FBACF008E687F0A438
:1017A3002CFCE435F0FA1809E687F0A42C4B600210
:1017B3007401CA35F0FCE433FB09E687F0D2F7A4E1
:1017C3002CCB35F0FC1908E687F0A42BCC35F0FBC5
:1017D300E433FD0819E687F0D2E7A42C4ACB35F0B1
:1017E300CD3400FC09E687F0D2E7A42DCC35F0FD1B
:1017F300E433FA0918E687F0D2F7A42CCD35F0CA02
:101803003400FC08E687F0D2E7D2F7A42ACC35F0FF
:101813007A7E20E70B0ACB33CBCD33CDCC33CC331D
:10182300CB3350147004ED30E00ED2F1E4CD3DCD56
:10183300CC3CCC3B5005DA05C2F1EB547FC63308F0
:10184300E63392F0FBE73309E733C39A502D2B704D
:10185300190C0D4C4D70151806E608C333700D2096
:10186300F10AA2F013F6E418800B4024E4F630F0FA
:1018730002768018F618F618F68024D33B1450101D
:1018830074FFA2F013F6187680E418F618F6800FAA
:10189300A2F013F618E63303F618ECF618EDF6D0BB
:1018A300E0FDD0E0FCD0E0FBD0E0FA221216996014
:1018B3001D1216A87005191919801A12166F701FB8
:1018C300121684C37003E6673319191940071818F1
:1018D300182208080874FFF618F618F618F62212EC
:1018E30016846017121665702192F012165B701938
:1018F300501720F014080808090909E7F61819E732
:10190300F61819E7F61819E7F62212165B60E6E8EF
:1019130069701F0808E62480F608E436F618547F39
:10192300B47F0CE654806007F6E418F618F6221824
:101933001822E9C6CC08C6CD08C6CE08C6CFC0E07B
:10194300E8C0E0EAC0E0EBC0E009E9F809E7FA091A
:10195300E7FBE6F918E6F8C3EC98ED99EE9AEBC2CB
:10196300E7F5F0EFC2E795F0500E600CEBCFFBEA22
:10197300CEFAE9CDF9E8CCF8EAA2E7D2E7FAEB33FD
:10198300FB13F5F0EEA2E7D2E7FEEF33FFC5F0134A
:10199300A2E730E601B313C5F0C3C0E0C0F07F0097
:1019A300C39BFB605B9418600C401AD0E023F9D012
:1019B300E0F8021A8D8AF0E9486003D2F0E4AFF050
:1019C300FAF9F8803BEB30E40D89F0EA6003D2F0DA
:1019D300E4AFF0F9CAF8EB30E30D88F0EF6002D220
:1019E300F0AFF0E4CAC9F8EB54076014FBC3EA1381
:1019F300FAE913F9E813F8EF135002D2E0FFDBED35
:101A0300D0E0C0E030E739C3E49FFFF5F0EC98FC89
:101A130042F0ED99FD42F0EE9AFE42F0D0E0F9D0AB
:101A2300E0F8E5F0607AE923F9EE20E742D8028096
:101A330067C3EF33FFEC33FCED33FDEE33FE80EA97
:101A4300EC28FCED39FDEE3AFED0E023F9D0E0F8C6
:101A53004002801BC3EE13FEED13FDEC13FCEF13EA
:101A63005002D2E0FF08B800067F7F74FF802EEF9C
:101A73003350178CF020F00260100CBC000C0DBD2D
:101A830000080EBE000408E860DFE933E813FFEE48
:101A93002313FE4F4D4C8008E95480FFE4FEFDFC08
:101AA300EE33EF33F47004FCFD7E80D0E0FBD0E036
:101AB300FAD0E0F8D0E0CFC618CEC618CDC618CC01
:101AC300C6F9221216997004181818221216A87053
:101AD3000D74FFF61819F61819F61819F622E754BB
:101AE3008066F612165B700F12166570F014F60816
:101AF300F608F608F680D1121665700CF608F6089B
:101B0300768008E6447F80EC121687700C121672FA
:101B130060BFE65480F6E480BB1216727005191993
:101B23001980A5E869700C763F18768018F618F6C8
:101B3300E8F922E6CDC0E018ECC0E0E633CD33CDC2
:101B4300D313F6E719FCE7191933CC33C3947F4059
:101B53000ECD9D502408E65480F6E418F6800FF469
:101B6300043D14501408E6447FF6187680E418F612
:101B730018F6D0E0FCD0E0FD22CCD313CCFD18E462
:101B8300C6CBC0E018E4C6CAC0E00808ED08C633F7
:101B9300E613F618E433C675F003C3CA97CA09CB34
:101BA30097CB199C40047D08802EBD0003021C6F57
:101BB30016B6FF050606081618C3CA33CACB33CBBD
:101BC30033CA27CA09CB37CB193CC37D08803E18DB
:101BD3007D0820E75CC633C6CA33CACB33CB33DDBB
:101BE300F1D5F0EB30E77BCA97CA09CB974ACB19FB
:101BF3009C406F4B7025E620E0218066187D08C36A
:101C0300CA97CA09CB97CB199CD3C633C6CA33CA62
:101C1300CB33CB3350C9DDE7D5F0E1D3E4C636C6C9
:101C230008C636C608C636C608C636C6181818808B
:101C330031C3CA97CA09CB97CB199CB34097C63314
:101C4300C6CA33CACB33CB33DD34D5F02EC6A2E0BC
:101C5300C640C8CA27CA09CB37194A70BECB3CB4A1
:101C630080B90808E63308E633601F181818D0E077
:101C7300FAD0E0FBD0E0FCD0E0FD22187D08CA27B3
:101C8300CA09CB37CB193CD3808013F618E4B67F4F
:101C930011F618B6FF0EF618C60470D2080876803F
:101CA30080CAF618F618F680C5080808EAC0E0EB03
:101CB300C0E086F0E7A4FA180986F0E7A42AFA1828
:101CC3000986F0E7A42AFA180986F0E7A42AFA1984
:101CD30086F0E7A4FBE5F02AFA190886F0E7A42BBF
:101CE300FBE5F03AFA190886F0E7A42BFBE5F03A96
:101CF300FA18180986F0E7A4C5F02BFBE43AFA19A1
:101D030008E7C5F0C6A426F6E5F03BFBE43AFA186B
:101D130086F0E7A4F6E5F00826F6E43B08F6E43A95
:101D230008F6D0E0FBD0E0FA22E4CFC0E0E4CEC076
:101D3300E0E4CDC0E0E4CCC0E075F020C3E633F6C8
:101D430008E633F608E633F608E633F6181818EC17
:101D530033FCED33FDEE33FEEF33FFC3EC9709EDB8
:101D63009709EE9709EF97191919400FFFEC97FCA4
:101D730009ED97FD09EE97FE191906D5F0BEECF7AC
:101D830009EDF709EEF709EFF7191919D0E0FCD0BF
:101D9300E0FDD0E0FED0E0FF22181818E4C396F669
:101DA30008E496F608E496F608E496F62260160828
:101DB3000808C6C313C618C613C618C613C618C662
:101DC30013C6D5E0EA22700908080822601618181D
:101DD30018C6C333C608C633C608C633C608C633D7
:101DE300C6D5E0EA22E627F60809E637F60809E64B
:101DF30037F60809E637F622E026F608A3E036F6BA
:101E030008A3E036F608A3E036F622E026F008A39E
:101E1300E036F008A3E036F008A3E036F022C3E68C
:101E230097F60809E697F60809E697F60809E6978C
:101E3300F622C3E0C696F608A3E0C696F608A3E02A
:101E4300C696F608A3E0C696F622C3E096F008A36A
:101E5300E096F008A3E096F008A3E096F022E0569F
:101E6300F608A3E056F608A3E056F608A3E056F6F4
:101E730022E056F008A3E056F008A3E056F008A3CA
:101E8300E056F022E0F608A3E0F608A3E0F608A384
:101E9300E0F622E6F008A3E6F008A3E6F008A3E6DE
:101EA300F022E0FAA3E0FBA3E0FCA3E0FD22EAF0CA
:101EB300A3EBF0A3ECF0A3EDF022CAC0E0E6F0A39D
:101EC30008DAFAD0E0FA22CAC0E0E0A3C582CCC5A2
:101ED30082C583CDC583F0A3C582CCC582C583CD1E
:101EE300C583DAE6D0E0CA22C3E498F8E499F9128C
:101EF3001F2C8026C3E49AFAE49BFBE920E7E9124E
:101F03001F2CE498F8E499F922C3E498F8E499F9CA
:101F1300121F2CE498F8E499F9C3E49AFAE49BFBC2
:101F230022EB20E7CFE920E7E0B90010BB0008E887
:101F33008AF084F8AAF022E4FBC8FA22EB70227B31
:101F430010C833C8C933C9335007C39AC3DBF280FF
:101F5300069A50012ADBEAC833F4C8C933F4C9FA34
:101F63002275F008E4C833C8C933C933C99AC99B79
:101F73005004C92AC93BD5F0ECFBC833F4C8E4C903
:101F8300FA22600D08C6A2E713C618C613C6D5E029
:101F9300F322600C08C6C313C618C613C6D5E0F4F3
:101FA30022700422600D18C6C333C608C633C6D5D3
:101FB300E0F41822251810AF08F51840021519800F
:101FC30008F51840021519D2AF22C0D0251810AF5A
:101FD30008F518500205198008F51850020519D2A2
:101FE300AFD0D0222518F58210AF08F5184002159E
:101FF300198008F51840021519D2AF8519832225D7
:1020030018F582E43519F58322E4732518C582C0D7
:10201300E0E51934FFC583C0E0E518C3958224F8D1
:1020230010AF0885831985821880088583198582F6
:1020330018D2AFCEF0A3E520F0A37808E608F0A30A
:10204300DEFAEFF0A3E58124FAF8E608F0A3E60848
:10205300F0A3E608F0A30808E608F0A3E608F0A357
:1020630015811581D0E0FED0E0F815811581158129
:10207300E8C0E0EEC0E0222518C582C0E0E51934CF
:10208300FFC583C0E0E518C3958224F910AF088526
:1020930083198582188008858319858218D2AFCE6B
:1020A300F0A3E520F0A37808E608F0A3DEFAEFF04A
:1020B300A3E58124FBF8E608F0A3E608F0A30808EB
:1020C300E608F0A3E608F0A315811581D0E0FED061
:1020D300E0F815811581E8C0E0EEC0E022851983A0
:1020E300851882E0A3FEE0A3F5207808E0A3F608B4
:1020F300DFFAE0A3FFE0A3C0E0E0A3C0E0E0A3C0F9
:10210300E0E0A3C0E0E0A3C0E010AF08858218853B
:1021130083198008858218858319D2AFD083D08232
:10212300020135851983851882E0A3FEE0A3F5201B
:102133007808E0A3F608DFFAE0A3FFE0A3C0E0E03D
:10214300A3C0E0E0A3C0E0E0A3C0E010AF08858235
:10215300188583198008858218858319D2AFD083A7
:10216300D08222C0D02518C582C0E0E51934FFC54E
:1021730083C0E0E518C3958224F310AF0885831963
:102183008582188008858319858218D2AFC8F0A389
:10219300E9F0A3EAF0A3EBF0A37908E709F0A3D8E9
:1021A300FAECF0A3EDF0A3EEF0A3EFF0A3D0E0F090
:1021B300A3D0E0F0A3D0E0F0A3E520F0A3E5F0F096
:1021C300A322851983851882E0C0E0A3E0F9A3E088
:1021D300FAA3E0FBA37808E0F608A3DFFAE0FCA388
:1021E300E0FDA3E0FEA3E0FFA3E0C0E0A3E0C0E0C6
:1021F300A3E0F5D0A3E0F520A3E0A3F5F010AF082A
:102203008583198582188008858319858218D2AF42
:10221300D082D083D0E0F8D0E03274048006740218
:1022230080027401C0E0F404121FE7D0E0121EBD67
:10223300227404800474028000CCC0E0EDC0E0E5A9
:1022430018C39CCCAD1950011D10AF068C188D1905
:1022530080068C188D19D2AF121ECAD0E0FDD0E0D3
:10226300FC22D083D082E9C0E0E493A3C386F0C507
:10227300F095F0F908E493A386F0C5F095F0700BA0
:10228300E493A3C3994005E9048002A3E475F00233
:10229300A42582F582E5F03583F583D0E0F9E49354
:1022A300A3C0E0E493C0E022D083D082ECC0E0ED91
:1022B300C0E0E493A3FCE493A3FDED4C600D122274
:1022C300F7EC24FFFCED34FFFD80EFE493A3FCE483
:1022D30093A3FDED4C600D122336EC24FFFCED348B
:1022E300FFFD80EFD0E0FDD0E0FCE493A3C0E0E489
:1022F30093C0E022C0E0C3E4939608740193961858
:10230300400FE493667008087401936618700070B8
:1023130019A3A3C3E49396087401939618A3A34047
:102323000DD0E0D0E0D0E00222E7A3A3A3A3A3A3B0
:10233300D0E022C0E0C0F088F0E49366700808742F
:10234300019366187000A8F0A3A3700BD0F0D0E03F
:0E235300D0E0D0E00222E7A3A3D0F0D0E02239
:10236400C2AF02000022C0E0C0D0E8C0E0A2AFE4E7
:1023740033F8D2AFA2E092AFD0E0F8D0D0D0E032C0
:10238400C0E074F2122166A2AFE433FED2AFE58A54
:10239400A2E7400CE58AA2E64006E58AA2E45003DF
:1023A400120798758A00758A00758A00C2EBEEA23E
:1023B400E092AF7F010221C5C0E0C0D0E8C0E0A236
:1023C400AFE433F8D2AFC2C7751A00A2E092AFD01F
:1023D400E0F8D0D0D0E03274F512207AEAFEEBFFB8
:1023E400EE2434F8EF3400F988088909EE24351214
:1023F4002513F8EE2437122513F50AEC850AF0A408
:10240400FCAAF0850AF0EDA42AFDE82CF8E43DF9D5
:102414007A257B00121F2CEA850882850983F054F3
:1024240007F87401B800028004C333D8FCC0E0E0AC
:10243400131313541FF8EE28F8EF3400F9E8245D61
:10244400F582E93400F583D0E0F8E05860088508A7
:1024540082850983801DEE2436122513F5F0EA8463
:10246400A8F0EE28F8EF3400F9E82438F582E934CE
:1024740000F583E0F97F0402212674F512207AEA3C
:10248400FEEBFFEE2434122513C0E0EE2435F58272
:10249400EF3400F583D0E0F08E828F83A3A3A3A34F
:1024A400A3E0FAA3E0FB8E828F83A3A3A3A3A3A339
:1024B400A3E0FCA3E0FDECC39AF50AED9BF50BEE5B
:1024C4002480F508EF3400F509850882F583E0647B
:1024D40001702BEE2481F582EF3400F5831222384B
:1024E40012251C7402121FCDE960137C1C7D07EEBB
:1024F400FAEFFB121068850882850983E4F0AC0AC0
:10250400AD0BEEFAEFFB1223DB122CD6022479F585
:1025140082EF3400F583E022C082C083851882856F
:102524001983E0F8A3E0F9C3EA9CEB9D5012C3ECD5
:1025340098ED994019C3EA98EB99501279018010EB
:10254400C3EA98EB9940F5C3EC98ED9950EE790005
:10255400D083D08222EAC39CFAEB9DFB22000000C8
:102564008521878522C622C0E074EF122166759BFF
:1025740000906182E0A2E6400302262CE591A2E6E7
:10258400400302262C7591BF9005E1E064057008B4
:10259400121206121212800312120C75210012126A
:1025A4007EE99005E2F07900121272120FD27A01DC
:1025B4007B009005E0E0F91204B6907803E06442F1
:1025C400600302267590077EE014F060030226750E
:1025D400C2AF1225D900782AD0E0F618D0E0F6E58B
:1025E4009F5407F970059090108003908FD8780855
:1025F400121E87E9C4C0E07829E65508F50808E604
:102604005509F509740B7808121F95D0E02508F8D0
:10261400906270E0A2E740F8E8C333906272F090F1
:102624006270E0D2E0F08049E0A2E55024E591A296
:10263400E5501E7591DF9005E1E0640D701390067E
:1026440003E004F064287002E4F07A00E0F9121266
:10265400F0906181E0A2E35009E5E9A2E35003753B
:10266400E9F7A3E0A2E75009E591A2E750037591C9
:102674007F7F040221C5C0E0C0D0C082C0839061C6
:1026840083E0A2E05009E5BFA2E0500375BFFEE07D
:10269400A2E15009E5BFA2E1500375BFFDE0A2E24B
:1026A4005009E5BFA2E2500375BFFBE0A2E3500965
:1026B400E5BFA2E3500375BFF7E0A2E45009E5BF0C
:1026C400A2E4500375BFEFE0A2E55009E5BFA2E51F
:1026D400500375BFDFE0A2E65009E5BFA2E6500350
:1026E40075BFBFD083D082D0D0D0E032C0E074F2C6
:1026F400122166E5A7A2E4500FE5A1A2E450095314
:10270400A7EF75A1EF122744E5A7A2E5500CE5A1B8
:10271400A2E5500653A7DF75A1DFE5A7A2E15009A2
:10272400E5A1A2E1500375A1FDE5A7A2E2500CE5E5
:10273400A1A2E2500653A7FB75A1FB7F010221C5AC
:1027440074F812207A7521019005E1E0640670079F
:102754007A007B001211EEA2AFE433FED2AF9005F3
:10276400E7E0640170187A207B009005E0E0F9123C
:1027740005467A207B009005E0E0F91204BC9061E4
:1027840082E0D2E6F090077DE0602185C6228016C3
:102794009005E6E064017008E5C654F84405F5C602
:1027A40053BEFC1225647401652160E4EEA2E0923C
:1027B400AF7F0102212600008E238F248582288585
:1027C4008327851882851983E0CEA3E0CF852882EC
:1027D400852783EBC9EAC8EDCBECCA75F010C3E8D2
:1027E40033C8E933C9EA33CAEB33CBC3EA9EF526CF
:1027F400EB9FF525B35004AB25AA26EC33CCED337F
:10280400CDD5F0DAAE23AF242274E912207A74FA1B
:10281400121FB7EAFEEBFF8C088D099005E1E02456
:10282400F7C39405500690903402293412116A8A31
:102834000A8B0BEA450B70030229311212248A0C0D
:102844008B0D121224EA650C7003EB650D60ECEE3F
:10285400FCEFFD851882851983AA82AB8312122AA4
:10286400850A82850B83A3A3780C121E87908FF4AC
:10287400780C121E618518828519837814121E87BC
:10288400908FF47814121E61780C79141215155077
:102894001F780C7914121E21908FB0780C12153504
:1028A4004047850C10850D11850E12850F1380414C
:1028B4008514108515118516128517137810790C57
:1028C400121E21908FB07810121535501C7510000F
:1028D40075110075120075130178107914121E21F8
:1028E4007810790C121DE880089090347810121E2C
:1028F4008774097810121DC9908F98780C121E875E
:102904007810790C121D2C9005E1E06408600AE04F
:1029140064066005E06405701C908FFC7810121545
:10292400355012908FA47810121DFB8008909044AB
:102934007810121E878508828509837810121E96E6
:102944007406121FCD7F1002212674F712207A120A
:10295400123C90077BE064017010906245E4F0A3A0
:10296400F053F4F343FE0C5390F31211DCE5C65418
:10297400804449F5C6E59E547F644970F8906185AA
:10298400740FF0900779E0F47002A3E0602C7508EE
:1029940001750900900779E07808121FA4E508F48E
:1029A400FAA3E0600814600A14600C800DEA5280F7
:1029B4008008EA52908003EA52A079007F02022143
:1029C4002674F712207AE9FEEAFF74016E700C7A1D
:1029D400807B009005E0E0F91204B6902CE4E493C7
:1029E400F46008E493F9120FB4800953C680E59E9D
:1029F400547F70FA1211E290077BE06401700312B5
:102A04000FEA900779E0F47002A3E0602A750801E8
:102A1400750900900779E07808121FA4AA08A3E0BA
:102A2400600814600A14600C800DEA42808008EA91
:102A340042908003EA42A012116A8A088B09A8080E
:102A4400A909E8496017E5E170FCE82414F582E976
:102A54003400F583E0F874FF68600288E174016F64
:102A6400700A7A019005E0E0F91205100229C07499
:102A7400F112207A8A088B098C0A8D0B740F1220AC
:102A840002780C121E87908FF47808121E61908FC2
:102A9400F4780C121E617808790C1215155015780B
:102AA40008790C121E21908FB07808121535401544
:102AB40079018013780C7908121E21908FB0780C5C
:102AC40012153540EB79007F0802212674ED12209F
:102AD4007A8A088B098C0A8D0B7413122002780CE5
:102AE400121E87908FF47808121E61908FF4780C70
:102AF400121E61780C790812151540117808790CAA
:102B0400121E21AA08AB09AC0AAD0B802275100075
:102B14007511007512007513017810790C121E21BD
:102B240078107908121DE8AA10AB11AC12AD137F0E
:102B34000C022126908FF47808121E878A828B83D8
:102B44007808121E747F0402212674F512207A8CF0
:102B5400828D837808121E878A828B837808121EDE
:102B64004D122BA2C3E098F0A3E099122B94401EBF
:102B740090902C7808121E878A828B837808121E04
:102B84000E8E828F83E02420F0A3E0344EF080A4E4
:102B9400F08E828F83C3E09420A3E0944E22EA2433
:102BA40004F8EB3400F9E8FEE9FF8C828D83A3A3DB
:102BB400A3A3E0F8A3E0F98E828F832274F5122098
:102BC4007AE9FE900733E0FAA3E0FBEEC333F8E4BE
:102BD40033F974E328F582748E39F583E02AF50815
:102BE400A3E03BF5097808122221908FCC121EA590
:102BF4001227BC7402121FCD8A088B098C0A8D0B14
:102C040074107808121DB0AA08AB097F04022126AB
:102C140074F112207A8A0C8B0D8C0E8D0F740F12A6
:102C24002002E0FAA3E0FB7411122002E0F508A3ED
:102C3400E0F5097413122002E0FEA3E0FF78081205
:102C44002221EA2401F508EB3400F509E4F50AF53C
:102C54000B780C7908121CAC908FB87808121E8778
:102C6400780C7908121CACAA0CAB0DAC0EAD0F128B
:102C740027BC7402121FCD8B09EA450960047A014E
:102C840080027A00EC2AFCED3400FDECF8EDF97AD0
:102C9400717B02121F2C88088909E4F50AF50B8E52
:102CA400828F837808121E96ECF8EDF97A717B0214
:102CB400121F2C8A088B0974057808121FA48E82AF
:102CC4008F83A3A3A3A3E508F0A3E509F07F08027B
:102CD4002126C082C083E9906000F0D083D0822294
:102CE400FFFFFFFFFFFFFFFF74F012200E8A0A8B25
:102CF4000B8909ECFEEDFF750800850A0C850B0DA8
:102D0400780C12226500040D2F2F2A2D4B2D6A2DCD
:102D14008B2DAC2DCD2D002E212E382E6E2E992EDE
:102D2400BA2EDA2E042F7401650970158E828F83F2
:102D3400E0C39403500B8E828F83E0900AD7F08017
:102D440003750818022F587402650970138E828F58
:102D540083E0F8A3E0F9900AD8E8F0A3E9F080034F
:102D6400750818022F587401650970158E828F83B7
:102D7400E0C39402500B8E828F83E09002C3F080F4
:102D840003750818022F587401650970158E828F17
:102D940083E0C39405500B8E828F83E09002C4F0CD
:102DA4008003750818022F587401650970158E8206
:102DB4008F83E0C39402500B8E828F83E09002C510
:102DC400F08003750818022F587410650970277570
:102DD4000C10750D00780C122221EEFCEFFD7AC662
:102DE4007B021204627402121FCD8A0C8B0D850CB7
:102DF40082850D838003750818022F5874016509B4
:102E040070158E828F83E0C39402500B8E828F8361
:102E1400E09002D6F08003750818022F58740165FB
:102E240009700B8E828F83E0900ADBF080037508B3
:102E340018022F5874046509702A8E828F83C08209
:102E4400C083908FCC780C121E87D083D082780CEC
:102E5400121525500F8E828F83121EA59002D81250
:102E64001EB18003750818022F58E5097021120B52
:102E74004CE97013120684E9F50C79501208ACE998
:102E8400F50D120672800B90036B7401F0800375CC
:102E94000818022F587401650970158E828F83E01B
:102EA400C39402500B8E828F83E09002D7F080038C
:102EB400750818022F587401650970158E828F8366
:102EC400E0C3940A500B8E828F83E0900ADAF0807C
:102ED40003750818807E74016509701F8E828F83C4
:102EE400E0C3940740158E828F83E0C39411500B86
:102EF4008E828F83E0900ADCF08059750818805424
:102F040074016509702090036AE0F50C8E828F834A
:102F1400E090036AF0E50C703B90036AE064017092
:102F240033120672802E7508188029C3E50A942688
:102F3400E50B9400501B7402650970158E828F8313
:102F4400E0FCA3E0FDAA0AAB0B1209EAE9F508804C
:102F540003750802A9087F080220E074EC12200E11
:102F640074DA121FB7890D8A128B138C0A8D0B74B5
:102F74003A122002E0F50C908F62C082C08385185B
:102F840082851983AC82AD83D083D0827406121EED
:102F9400CA851882851983AC82AD83AA12AB13A9A2
:102FA4000D120618E9FEEEC3940A40030230FEEE49
:102FB400F9120654E9FF900AD7E064027004740120
:102FC40080027400F5087808122225AD0CEFFCEE9F
:102FD400F9AA0AAB0B1206C67401121FCD7C147D2C
:102FE4000079007412122002AA82AB8312047A8A36
:102FF4000E8B0F850E08850F097412122002AC8205
:10300400AD837A1075F006EEA42424F91208A6E91B
:1030140070437C1079FF7412122002AA82AB8312CF
:1030240004DAE970307422122002AC82AD837A048F
:1030340075F006EEA42425F91208A6E9F508741221
:10304400122002AC82AD83EFA2E0E433F9AA0AAB0A
:103054000B120A74E97406122002AC82AD837A0C56
:1030640074702EF91208A6E9707E7406122002AA62
:1030740082AB83120648750E00E50EC394045068B3
:10308400E50EA80E7900E875F003A4C8AAF075F05F
:1030940000A42AFA75F003E9A42AF974061220029E
:1030A400E58228F508E58339F509850882850983D1
:1030B400E0F8A3E0F9E849602B850882850983A339
:1030C400A3E0F5107511007810122221850882857D
:1030D4000983E0FCA3E0FDAA0AAB0B120CD2740234
:1030E400121FCDE9050E8091EFA2E1500D9002C2AE
:1030F400E0F9AA0AAB0B120CD8E97404650C700F42
:10310400900AD7E064027007AA0AAB0B1206C079D2
:10311400007426121FCD7F0C0220E074F212200EE0
:10312400890BEAFEEBFF8C088D09750A0AE50B6032
:103134000C1460091460441460640231C3EEFAEFA5
:10314400FB120666E9F50AE50AC3940A5071E5081C
:103154004509606B750C06750D00780C122221EE82
:10316400FCEFFDAA08AB091204627402121FCD8A97
:103174000C8B0D850C82850D838044EEFAEFFB12D7
:103184000660E9F50AE50AC3940A5033E5084509DF
:10319400602DAA08AB09A90A12065AE98021EEFAA1
:1031A400EFFB12066CE9F50AE50AC3940A5010E530
:1031B400084509600AAA08AB09A90A12065AE9A92E
:1031C4000A7F060220E074F212200E8A0C8B0DE9AD
:1031D400FE7F1574FF650C700474FF650D702A750D
:1031E4000800E508C3940A5014EEFC7A027B00A997
:1031F40008120636E960027F00050880E5EE606388
:103204007AAE7B06120EF4805AAA0CAB0D120ED6BF
:103214008A0A8B0B850A08850B09E5084509604174
:103224007C007D00E5082405FAE5093400FB8508E7
:1032340082850983A3A3A3A3E0F9120618E9F50A7A
:10324400E50AC3940A500EEEFC7A027B00A90A1226
:103254000636E97F00EE600BAA08AB091206AE80C1
:10326400027F14EFF97F060220E074EE12200E8A2A
:103274000E8B0F8C0A8D0B7412122002E0F50CA336
:10328400E0F50D75081574FF650E700474FF650F85
:10329400701E7E00EEC3940A5062AC0CAD0DAA0AF7
:1032A400AB0BEEF912063CE960037508000E80E4EE
:1032B400AA0EAB0F120ED68A108B11AE10AF11EE00
:1032C4004F60367C007D00EE2405FAEF3400FB8E5F
:1032D400828F83A3A3A3A3E0F9120618E9F509E5F5
:1032E40009C3940A5016AC0CAD0DAA0AAB0BA9097C
:1032F40012063CE97508008003750814A9087F0AC2
:103304000220E074F712200EEAFEEBFF9002DCEEDE
:10331400F0A3EFF09002C2E0FC7D007A257B00125E
:1033240009EAE9F5089002C2E0F9120C4E7F0102A5
:1033340020E074EE12200E74EC121FB78A0A8B0B75
:10334400850A82850B83A3A3E024FA700302386AFA
:1033540024FD70030236E014700302342914601053
:1033640024FD700302368814700302372002388D5E
:10337400AE0AAF0B9002DCE0F8A3E0F9E84960691B
:103384009002DCE0F8A3E0F5838882E0F8A3E0F99A
:10339400E8496055EE240CF582EF3400F583E0F53E
:1033A400087808122225EE240BF582EF3400F58309
:1033B400E0F98E828F83A3A3A3A3A3A3A3A3A3E073
:1033C400FCA3E0FDEE2403FAEF3400FB9002DCE002
:1033D400F8A3E0F5838882E0F8A3E0F583888212FD
:1033E400200C7401121FCD80398E828F83A3A3A376
:1033F400A3A3A3A3A3A31222389002D8121EA5123A
:103404000A867402121FCDE9601879018E828F83B7
:10341400A3A3A3A3A3A3A3A3A3E0FAA3E0FB120A79
:1034240080E902388DAE0AAF0B8E828F83A3E060F1
:10343400030236368E828F83A3A3A3A3A3E0A2E064
:1034440040030236367C0E7D00790085188285198A
:1034540083AA82AB8312047A8A088B09AA08AB096F
:103464008E828F83A3A3A3A3A3A3A3A3E0F8A3E0C3
:10347400F9E849603D7508067509007808122221AB
:103484008E828F83A3A3A3A3A3A3A3A3E02410FCEE
:10349400A3E03400FD7402122002AA82AB8312045A
:1034A400627402121FCD8A088B09850882850983FC
:1034B40080548E828F83A3A3A3E0FAA3E0FB120EB1
:1034C400D68A0C8B0D850C08850D09E50845096025
:1034D40032750C06750D00780C122221E5082405BE
:1034E400FCE5093400FD7402122002AA82AB8312A7
:1034F40004627402121FCD8A0C8B0D850C82850D1B
:1035040083800302388D8E828F83A3A3A3A3A3E0B9
:10351400A2E25004D2F08002C2F0A2F0E433F879BF
:1035240000740C122002E048F0A3E049F08E828F70
:1035340083A3A3A3A3A3A3A3A3A3A3E0F8A3E0F952
:10354400E84960228E828F83A3A3A3A3A3A3A3A38A
:10355400A3A3E02410F8A3E03400F98882898378D7
:103564000C121E87800890902C780C121E878E8275
:103574008F83A3A3A3A3A3A3A3A3A3A3E0F8A3E07C
:10358400F9E84960178E828F83A3A3A3A3A3A3A3FF
:10359400A3A3A3E0F508A3E0F50980067508007568
:1035A40009008E828F83A3A3A3A3A3A3A3A3E0F8FC
:1035B400A3E0F9E84960158E828F83A3A3A3A3A394
:1035C400A3A3A3E0F510A3E0F51180067510007520
:1035D4001100780C12221D78081222217810122270
:1035E40021EE240CF582EF3400F5831222388E820A
:1035F4008F83A3A3A3A3A3A3E0FCA3E0FD740A12F7
:103604002002AA82AB8312064E740A121FCDE9F57A
:10361400088E828F83A3A3A3E0F8A3E0F990036C40
:10362400E8F0A3E9F07A017B009002C2E0F9120409
:10363400B6E99002DCE0F8A3E0F9E84960439002BF
:10364400DCE0F8A3E0F5838882A3A3E0F8A3E0F923
:10365400E849602D8E828F83A3E0FC79018E828FEE
:1036640083A3A3A3E0FAA3E0FB9002DCE0F8A3E0C9
:10367400F5838882A3A3E0F8A3E0F583888212206F
:103684000C02388DAE0AAF0B9002DCE0F8A3E0F92F
:10369400E84960459002DCE0F8A3E0F5838882A362
:1036A400A3E0F8A3E0F9E849602F850A82850B833B
:1036B400A3E0FC79028E828F83A3A3A3E0FAA3E0A4
:1036C400FB9002DCE0F8A3E0F5838882A3A3E0F892
:1036D400A3E0F583888212200C02388DAE0AAF0B6A
:1036E4007C007D00EE2404FAEF3400FB8E828F838D
:1036F400A3A3A3E0F9120618E9F508E508C3940AA0
:103704005017EE240AFCEF3400FD7A0475F006E548
:1037140008A42425F91208A0E902388DAE0AAF0BDB
:103724009002D7E06018900ADAE0F98E828F83A3C2
:10373400A3A3E0FAA3E0FB120A80E902388D900A01
:10374400D7E0701579058E828F83A3A3A3E0FAA333
:10375400E0FB120A80E902388D8E828F83A3A3A333
:10376400E0FAA3E0FB120ED68A0C8B0D850C0885BB
:103774000D098E828F83A3A3A3A3A3A3A3E0A2E036
:103784005075E5084509606C850882850983A3A303
:10379400A3A3E060628E828F83A3A3A3A3A3A3A3A6
:1037A400A3A3E0F8A3E0F9E8C4540FF879005401A6
:1037B400F8E95400F9E8A2E0403D740E122002AC8E
:1037C40082AD83E5082405FAE5093400FB85088207
:1037D400850983A3A3A3A3E0F9120618E970187955
:1037E400038E828F83A3A3A3E0FAA3E0FB120A80D3
:1037F400E902388D02388DEE2405FCEF3400FD8596
:103804000882850983A3A3A3A3E0F98E828F83A3EF
:10381400A3A3E0FAA3E0FB1206BA9002DCE0F8A34B
:10382400E0F9E84960639002DCE0F8A3E0F58388FE
:1038340082A3A3E0F8A3E0F9E849604D7C00790095
:103844008E828F83A3A3A3E0FAA3E0FB9002DCE0C3
:10385400F8A3E0F5838882A3A3E0F8A3E0F58388C6
:103864008212200C8023120B4CE9701D90036BE034
:103874006401700B120684E9F890036B7400F0790C
:10388400501208ACE9FE1206727414121FCD7F0A9E
:103894000220E074F312200E74F2121FB78909EAB1
:1038A400FEEBFF8C0C851882851983AC82AD837A7C
:1038B4000E75F006E509A42420F91208A6E9707231
:1038C4007C0679FF851882851983AA82AB8312044A
:1038D400DAE9705E740C122002E0F8A3E0F9E8F56E
:1038E40008E50C6005EE42088004EEF452088508F1
:1038F4000A750B00740C122002E0650A7004A3E040
:10390400650B602AE508A8087900740C122002E50A
:1039140008F0A3E9F0851882851983AC82AD837A17
:103924000E75F006E509A42420F91208A0E979012E
:1039340080027900740E121FCD7F050220E074F01E
:1039440012200E74E6121FB7890B8A0C8B0DECFE45
:10395400EDFF740C122002AC82AD837A0E75F00672
:10396400E50BA42420F91208A6E96003023AA67C18
:103974000679FF740C122002AA82AB831204DAE9DE
:103984006003023AA6851882851983AC82AD837AD6
:103994000C7470250BF91208A6E96003023AA275AB
:1039A4000A00851882851983AA82AB83120648E52A
:1039B4000C450D703A7C0C7900851882851983AA10
:1039C40082AB831204DAE96003023A7C7C0C7D004A
:1039D4007900851882851983AA82AB8312047A8AB6
:1039E400088B09850882850983750A01023A7C855A
:1039F4001882851983AC82AD83AA0CAB0D120642E2
:103A04008A0E8B0F850E08850F09E5084509703667
:103A1400EE4F6021851882851983AC82AD837A00CC
:103A24007B001206428A0E8B0FA80EA90F88088904
:103A340009E84970047900806B850882850983E56B
:103A44000CF0A3E50DF0850882850983A3A3E0F8B3
:103A54007900EE687002EF69601EEE8508828509C0
:103A640083A3A3F0EE4F700D85088285098374004B
:103A7400F0A37400F0750A01E50A602285188285B6
:103A84001983AA82AB83120648851882851983ACF0
:103A940082AD837A0C7470250BF91208A0E97901C0
:103AA40080027900741A121FCD7F080220E074F797
:103AB40012200EEAFEEBFF7B00EBC39404504EEBA6
:103AC400F87900E875F003A4C8AAF075F000A42AF8
:103AD400FA75F003E9A42AF9EC28F582ED39F583A7
:103AE400E06E7003A3E06F7021EBF87900E875F0E5
:103AF40003A4C8AAF075F000A42AFA75F003E9A497
:103B04002AF9EC28FAED39FB80070B80AC7A007BAC
:103B1400007F010220E074F712200E7F00EFC394AF
:103B2400044003023BC9EFF87900E875F003A4C828
:103B3400ACF075F000A42CFC75F003E9A42CF9EAB0
:103B440028F582EB39F583E0F4FCA3E0F4FDEFF80B
:103B54007900E875F003A4C8AEF075F000A42EFE59
:103B640075F003E9A42EF9EA28F582EB39F583EC24
:103B7400F0A3EDF0EFF87900E875F003A4C8ACF019
:103B840075F000A42CFC75F003E9A42CF9EA28F5DF
:103B940082EB39F583A3A3E0F4C0E0EFF87900E801
:103BA40075F003A4C8ACF075F000A42CFC75F00308
:103BB400E9A42CF9EA28F582EB39F583A3A3D0E034
:103BC400F00F023B217F010220E074EA12200E7400
:103BD400F4121FB7EAFEEBFF8C108D117422122031
:103BE40002E0F50EA3E0F50F7424122002E0F50CB8
:103BF400A3E0F50D7426122002E0F50AA3E0F50B0C
:103C0400EE4F7005790A023D44EEFAEFFB120666A8
:103C1400E9F508E508C3940A4006120678E9F508B0
:103C2400E508C3940A4003023D42EEFCEFFD7A0E20
:103C340075F006E508A42420F91208A0E9F8E510B7
:103C440045116013AC10AD117A1B75F006E508A49C
:103C54002421F91208A0E9E50E450F6013AC0EAD5E
:103C64000F7A1B75F006E508A42422F91208A0E9CE
:103C7400E50C450D6013AC0CAD0D7A1075F006E53E
:103C840008A42423F91208A0E9E50A450B602DAC29
:103C94000AAD0B7A1075F006E508A42424F912087D
:103CA400A0E9F5097428122002AC82AD837A047568
:103CB400F006E508A42425F91208A0E97C0C7D008F
:103CC40079FF851882851983AA82AB8312047A8AC4
:103CD400128B13851214851315851882851983ACEC
:103CE40082AD837A0C74702508F91208A0E9F509ED
:103CF40075120E7513007812122221EEFCEFFDE509
:103D040008A8087900E875F00EA4C8AAF075F000B8
:103D1400A42AFA75F00EE9A42AF974DE28FA7402CA
:103D240039FB1204627402121FCD8A128B13A8127B
:103D3400A91390036AE060031206CC1206B4A90822
:103D4400740C121FCD7F0E0220E074F712200E7443
:103D5400F2121FB7E9FE851882851983AC82AD8300
:103D64007A0E75F006A42420F91208A6E9700E74E0
:103D74000C122002E0F8A3E0F9E8F980027900745B
:103D84000E121FCD7F010220E074F412200E74F293
:103D9400121FB78909EAFEEBFFE509C3940A500430
:103DA400EE4F70047902804B851882851983AC82AA
:103DB400AD837A0E75F006E509A42420F91208A64D
:103DC400E9F508E508702A750A06750B00780A12E9
:103DD40022217402122002AC82AD83EEFAEFFB12B0
:103DE40004627402121FCD8A0A8B0B850A82850B2A
:103DF40083A908740E121FCD7F040220E074F4120C
:103E0400200EEAFEEBFF750800E508C3940A50454E
:103E1400750A06750B00780A122221EEFCEFFDE507
:103E240008A8087900E875F00EA4C8AAF075F00097
:103E3400A42AFA75F00EE9A42AF974E428FA7402A3
:103E440039FB1204747402121FCDE96004A90880BE
:103E540006050880B4790A7F040220E074F4122075
:103E64000EEAFEEBFF750800E508C3940A50457599
:103E74000A06750B00780A122221EEFCEFFDE50814
:103E8400A8087900E875F00EA4C8AAF075F000A49B
:103E94002AFA75F00EE9A42AF974DE28FA740239B4
:103EA400FB1204747402121FCDE96004A908800691
:103EB400050880B4790A7F040220E074F712200E0A
:103EC40074F0121FB7EAFEEBFF750800E508C3940F
:103ED4000A504B851882851983AC82AD837A10759C
:103EE400F006E508A42423F91208A6E9702C7C1036
:103EF40079FF851882851983AA82AB831204DAE9D3
:103F04007018EEFCEFFD851882851983AA82AB83B5
:103F1400120A56E97004A9088006050880AE790AD9
:103F24007410121FCD7F010220E074F412200E756C
:103F34000800E508C3940A4003024010E508A808F5
:103F44007900E875F00EA4C8AAF075F000A42AFA66
:103F540075F00EE9A42AF974DE28FC740239FD7A9E
:103F64000E75F006E508A42420F91208A6E97003EA
:103F740002400B7C067D0079FFE508AA087B00EA75
:103F840075F00EA4CAA8F075F000A428F875F00E18
:103F9400EBA428FB74DE2AFA74023BFB12047A8A2F
:103FA4000A8B0BAE0AAF0B7C067D0079FFE508AAED
:103FB400087B00EA75F00EA4CAA8F075F000A428E6
:103FC400F875F00EEBA428FB74E42AFA74023BFBA8
:103FD40012047A8A0A8B0BAC0AAD0BE508A808799F
:103FE40000E875F00EA4C8AAF075F000A42AFA75CA
:103FF400F00EE9A42AF974EA28F582740239F583EB
:104004007400F0A37400F00508023F3690036AE0E0
:1040140060031206CC1206B47F040220E074F71287
:10402400200E7E00EEC3940A50327C0679FFEEFA2D
:104034007B00EA75F00EA4CAA8F075F000A428F875
:1040440075F00EEBA428FB74DE2AFA74023BFB1213
:1040540004DAE96004EEF980050E80C8790A7F016C
:104064000220E074F712200E7E007F00EFC3940A52
:10407400502F7C0679FFEFFA7B00EA75F00EA4CA94
:10408400A8F075F000A428F875F00EEBA428FB74D2
:10409400DE2AFA74023BFB1204DAE970010E0F8087
:1040A400CBEEF97F010220E074F712200E7E007F30
:1040B40000EFC3940A500DEE700AEFF912068AE974
:1040C400FE0F80EDEEF97F010220E074EE12200E67
:1040D40074CB121FB7E9FE7427122002AC82AD83A1
:1040E4007A0E75F006EEA42420F91208A6E96003FE
:1040F4000242107C0679FF7427122002AA82AB8345
:104104001204DAE960030242107C0E7D0079FF7428
:1041140027122002AA82AB8312047A8A0A8B0B85A7
:104124000A0E850B0F7C1B7D0079FF740C12200294
:10413400AA82AB8312047A8A0A8B0B850A0C850B3C
:104144000D7C0C7D0079FF851882851983AA82ABCA
:104154008312047A8A108B1185100A85110B742737
:10416400122002AC82AD837A0E75F006EEA42420F0
:10417400F91208A0E9F508740C122002AC82AD8390
:104184007A1B75F006EEA42421F91208A0E942086E
:10419400740C122002AC82AD837A1B75F006EEA477
:1041A4002422F91208A0E94208740C122002AC82FD
:1041B400AD837A1075F006EEA42423F91208A0E961
:1041C4004208740C122002AC82AD837A1075F0069A
:1041D400EEA42424F91208A0E94208740C12200267
:1041E400AC82AD837A0475F006EEA42425F9120896
:1041F400A0E94208851882851983AC82AD837A0CC4
:1042040074702EF91208A0E942088003750800A909
:10421400087435121FCD7F0A0220E074F712200EB5
:10422400E9FE9002C2F01206727F010220E074F2ED
:1042340012200E890A8A088B09E5085400F8E5095A
:104244005480F9E84960339002C2E0F912049E8A6E
:104254000C8B0DA80CA90DE8FEE9FFE849600FEEF0
:10426400FAEFFB12069CEEFAEFFB12048CE9E50868
:104274006400FAE5096480FB8021E508A2E0501798
:1042840090036CE0FAA3E0FB1206D2E5086401FA9D
:10429400E5096400FB80047A007B007F060220E0CD
:1042A40074F712200EEAFEEBFF8E828F83E0245017
:1042B400601014601624E17019EEFAEFFB12063058
:1042C4008010EEFAEFFB1206A28007EEFAEFFB1263
:1042D40006A87F010220E074F712200EEAFEEBFF2D
:1042E4008E828F83A3A3A3A3E0641E701179008E32
:1042F400828F83A3A3E0FAA3E0FB12061EE97F01E9
:104304000220E074F612200EEAFEEBFF8E828F8309
:10431400A3A3A3A3E0703A8E088F098508828509B8
:1043240083A3A3A3A3A3A3A3122238850882850988
:1043340083A3A3A3A3A3E0FCA3E0FD8508828509CE
:1043440083A3A3E0FAA3E0FB1206247402121FCD98
:10435400E97F020220E074F712200EEAFEEBFF90E0
:1043640002C2E0F98E828F83A3E0FAA3E0FB120C71
:10437400D8E97F010220E0C082C08374FF121FB716
:1043840012067EE9C39402400B8518828519837452
:1043940002F08009851882851983740AF0851882D1
:1043A400851983AC82AD837A017905120B64E974B3
:1043B40001121FCDD083D08202013574F212200E77
:1043C40074E8121FB7EAFEEBFF890A8C088D097C9A
:1043D400187D007900851882851983AA82AB83121F
:1043E400047A8A0C8B0DAC0CAD0D8518828519836B
:1043F400EEF0A3EFF09002C4E0C0E07402122002D9
:10440400D0E0F09002C5E0C0E07403122002D0E0D6
:10441400F0900ADCE0C0E07417122002D0E0F074DF
:1044240015122002E054FEF8A3E054FFF9900ADBD1
:10443400E0A2E0E433FA7B00E84AF8E94BF97415AA
:10444400122002E8F0A3E9F0900ADBE0A2E15004B4
:10445400D2F08002C2F07415122002E054FDFAA3D7
:10446400E054FFFBA2F0E433F87900C333F8E933F6
:10447400F9EA48F8EB49F97415122002E8F0A3E9C7
:10448400F0900ADBE0A2E35004D2F08002C2F074A0
:1044940015122002E054F7FAA3E054FFFBA2F0E463
:1044A40033F50C750D007403780C121FA4EA450C47
:1044B400F8EB450DF97415122002E8F0A3E9F09029
:1044C4000ADBE0A2E45004D2F08002C2F0741512B8
:1044D4002002E054EFFAA3E054FFFBA2F0E433F52A
:1044E4000C750D007404780C121FA4EA450CF8EB4B
:1044F400450DF97415122002E8F0A3E9F0900ADBE7
:10450400E0A2E55004D2F08002C2F0741512200239
:10451400E054DFFAA3E054FFFBA2F0E433F50C759A
:104524000D007405780C121FA4EA450CF8EB450D38
:10453400F97415122002E8F0A3E9F0900ADBE0A276
:10454400E25004D2F08002C2F07415122002E0544A
:10455400FBFAA3E054FFFBA2F0E433F50C750D0065
:104564007402780C121FA4EA450CF8EB450DF9749B
:1045740015122002E8F0A3E9F09002C5E0602A7564
:104584000C10750D00780C1222217CC67D02740675
:10459400122002AA82AB831204627402121FCD8A13
:1045A4000C8B0D850C82850D839002D6E06012E59C
:1045B4000A600E7415122002E04402F0A3E04400E5
:1045C400F09002D6E06006780179008004780079E2
:1045D400007414122002E048F09002C3E0600678F0
:1045E4000479008004780079007414122002E048F1
:1045F400F0AC08AD09851882851983AA82AB8312B1
:104604000A7AE97418121FCD7F060220E074F712AB
:10461400200EEAFEEBFF7508009002D6E0600678F3
:10462400017900800478007900E842089002C3E030
:10463400600678047900800478007900E84208A9CB
:1046440008EEFAEFFB120B34E97F010220E074EE6E
:1046540012200E74E5121FB78A0C8B0DE9FF8C082B
:104664008D09742D122002E0F50A74086509700A98
:1046740075F006EFA42422FE800875F006EFA4244A
:1046840021FE7C1B7D007900851882851983AA820E
:10469400AB8312047A8A108B1185100E85110F8555
:1046A4001882851983AC82AD837A1BEEF91208A6B1
:1046B400E9703C741A122002E0C394074031741A62
:1046C400122002E0C394115026E50AF50B780B1270
:1046D40022257401122002AC82AD83E508A2E0E435
:1046E40033F9AA0CAB0D120A8C7401121FCDE974B4
:1046F4001B121FCD7F0A0220E074F712200E120D48
:104704004AE97E00EEC3940A50557C0679FFEEFA1E
:104714007B00EA75F00EA4CAA8F075F000A428F88E
:1047240075F00EEBA428FB74DE2AFA74023BFB122C
:1047340004DAE97027EEF87900E875F00EA4C8AA47
:10474400F075F000A42AFA75F00EE9A42AF974DED3
:1047540028FA740239FB7900120D50E90E80A57F06
:10476400010220E074F412200E74FB121FB78A08B1
:104774008B09740312200285820A85830B780A123E
:104784002221750A02750B00780A122221750A7516
:10479400750B90780A1222217CFF7DFF7A017B0041
:1047A400120BA67406121FCD8A0A8B0BAE0AAF0B2E
:1047B400EE4F7003024872E4F50AF50B780A1222F0
:1047C40021740412200285820A85830B780A12223E
:1047D40021740412200285820A85830B780A12222E
:1047E4002174091220021222387902EEFCEFFDAA8C
:1047F40008AB09120CC67408121FCDE97043851862
:1048040082851983E0FA7B007401122002E0F879B2
:1048140000E4C8F9EA28F50AEB39F50BE50A450B7B
:10482400601F780A1222218E828F83A3A3A3A3E0A0
:10483400FCA3E0FDAA08AB091206247402121FCDE2
:10484400E9E4F50AF50B780A122221740512200214
:104854001222387CFF7DFFEEFAEFFB120BB27404D8
:10486400121FCD8A0A8B0BAE0AAF0B0247B4740534
:10487400121FCD7F040220E0C082C083E9900C2C7B
:10488400F0024B0074F712200EE99004FFF07C371D
:104894007D057AFF7BFF120CDE90050074FFF0A308
:1048A400F0A3E4F0A3F07905120C669004FFE0F99C
:1048B400120B8E7AFC7B0C120EC402580E74F41286
:1048C400200E8A088B09EB548060309004FFE0F9D5
:1048D40012049E8A0A8B0BAE0AAF0BEE4F60138E46
:1048E400828F83E064B07003120C7EEEFAEFFB1249
:1048F400048CAA08E5096480FB80047A007B00022A
:104904004ACF74F212200E74FC121FB7EAFEEBFFBA
:104914007412122002125CF5EE4F70030249A9745E
:1049240002122002EEF0A3EF124D0AECF0A3ED12F6
:104934004D0AAA82AB83120B88E9F50A706AE5086E
:10494400450960648E828F83125CDBEE4F60567A79
:10495400067B001204F88A0C8B0DA80CA90DE849FB
:104964007005750A13804188828983E41249B6EE82
:10497400F0A3EF125D06E508F0A3E509F090050544
:10498400124A3D90050570051257B8801B1257A6B0
:104994008003EAFCEBFD8C828D83124A3D70F38C1C
:1049A400828D8380E3750A02A90A7404121FCD0262
:1049B4005EF5F0A3125CACA32274F212200E890AF5
:1049C400E975F017A4FEAFF0900504E4F090050239
:1049D400124A3D600A1204FE900502E4F0A3F0EED0
:1049E400FAEFFB1204F88A088B09EA4509602FEEF6
:1049F400FCEFFD790012047A900502E508F0A3E5C6
:104A040009F07B008008124A27E4F0A3F00BEBC303
:104A1400950A40F2E50A900504F0790080027913C2
:104A2400025EF5EB75F017A4F8A9F0900502E028F2
:104A3400FAA3E0398A82F5832212544AEA4B22749B
:104A4400F412200E740C122002125CD0FEE9FF75E1
:104A54000800750900800CE5082401F508E509340F
:104A640000F509C3E5089CE5099D503285080A85CF
:104A7400090B7403780A121FA4EA250AF8EB350B14
:104A8400F988828983A3A3A3A3A3A312588DEE65F7
:104A94000A7003EF650B70BFE8FAE9FB80047A0043
:104AA4007B00802774F412200E7900EAA2E0501BE8
:104AB40075087475098F78081222217C047D007AA8
:104AC4002E7B0C120C607402121FCD7F040220E0B6
:104AD400C082C083900505124B07601C88828983BD
:104AE400A3A3E06A7003A3E06B8882898370E8A3C0
:104AF400A3A3A312544680047A007B00D083D082FF
:104B0400020135125FDBE8492274EE12200E74FCB8
:104B1400121FB7EAFEEBFF851882851983E4F0A320
:104B2400F0EE2402125798EE2405125CB3EE24042E
:104B3400F50EEF1250BFE024FE603924FC604624D9
:104B4400FE605224FE605E24FE7003024C2024FEAC
:104B54007003024C8424FE7003024C9324FE700301
:104B6400024CA224FC7003024CB124FE7003024CDC
:104B7400C0024CFD90051E7417F0A3E4124D1212EE
:104B84000906024CFD851882851983AC82AD831217
:104B94000C84024CCD851882851983AC82AD8312B6
:104BA4000C8A024CCD850C08850D09740212200272
:104BB400AC82AD83850882850983125446120BACFE
:104BC4008A0C8B0DAC0CAD0DEC4D603BE4F50CF593
:104BD4000D780C122221750C1E750D05780C12220D
:104BE40021750C1F750D05780C12222174081220F2
:104BF40002122238126157121FCDE9F50C700B1204
:104C0400543C12091E800F750C01850882850983A6
:104C1400124D001257B8850C08024CD074021220B1
:104C240002AC82AD83850C82850D83125211603CE7
:104C3400850C82850D83A3A312223875101E75116D
:104C440005781012222175101F7511057810122293
:104C5400217408122002122238126157121FCDE962
:104C6400F509700B12543C120924800F7509018553
:104C74000C82850D83124D001257B8850908804CAB
:104C8400851882851983AC82AD83120C90803A8595
:104C94001882851983AC82AD83120C96802B8518FB
:104CA40082851983AC82AD83120C9C801C8518828A
:104CB400851983AC82AD83120CA2800D8518828580
:104CC4001983AC82AD83120CA8E9F508E5086029C4
:104CD4008E828F83A3E06414601F850E82850F8308
:104CE400E090051E124D0A125FD790051F1257B8A7
:104CF400E508A3124D121209000256A7125FDB85C4
:104D0400188285198322F085188285198322F07C04
:104D14001E7D05850A82850B8312544A2274EE1285
:104D2400200E74FC121FB78A0A8B0B8C0E8D0FEAAF
:104D34002405F508EB3400F5097C157D0079007A2B
:104D44001E7B0512047AE5082402F50CE509125CC1
:104D5400B68518828519838582108583117810128F
:104D64002221850882850983A3A3A3A312520812D2
:104D74002221E5082405F510E5093400F511781021
:104D8400122221850C82850D8312555D120BA674A7
:104D940006121FCD8A108B11AE10AF11E50A240242
:104DA400F50AE50B12579BEE4F7003024EDF801796
:104DB400740212200212544688828983EAF0A3EB1B
:104DC400F090051EE004F090051EE0C39405400336
:104DD400024EDFE4F510F511781012222175100748
:104DE40075110578101222217510087511057810B7
:104DF40012222174061220021222387910EEFCEFDE
:104E0400FD126159121FCDE9705E85088285098300
:104E1400A3A3A3A3A3A3A3E0F8900507E0687048A5
:104E24001252081222217C087D05E5082408FAE5BF
:104E3400093400FB1204747402121FCDE960298E38
:104E4400828F83A3A3A3A312544690051EE0F510FA
:104E540074027810121FA4741F2510F5827405358E
:104E640011F583EAF0A3EBF074021220028582109C
:104E74008583117810122221740212200212223822
:104E8400850C82850D8312546C121FCD8A108B11F0
:104E9400AE10AF1190051EE0F51075110074027884
:104EA40010121FA4741E2510F874053511F9888298
:104EB4008983A3124A3D7003024DABE8240308081A
:104EC40008E93400F9EE4F6003024DB48882898307
:104ED40074FFF0A3F090051EE004F090051EE0605E
:104EE4000A12543C1209127900800B850882850944
:104EF400831257AF790A0256A774EA12200E74FE81
:104F0400121FB78C128D13EA2405F50CEB126141C4
:104F1400125CDF750800750900EA2402F510EB3411
:104F240000F51185188285198385820A85830B789B
:104F34000A122221850C82850D83A3A3A3A31250F8
:104F4400D5122221E50C2405F50AE50D12579B78AC
:104F54000A122221850C82850D831250D9120BA6C8
:104F64007406121FCD8A0A8B0BEA450B700302509C
:104F74007AEA2404F50EEB1250BF125CDF8A828BAE
:104F840083A3A3A3E0F98510828511831254506092
:104F94000302507AE4F514F51578141222217514DD
:104FA40007751505781412222175140875150578EE
:104FB4001412222174061220021222387913AC0A28
:104FC400AD0B85108285118312615F121FCDE9F547
:104FD40009600302507A900507E0F8E5087009E0DB
:104FE400240290051FF0801490051FE0FCE82402C1
:104FF400FAE43400FBEA6C7001EB707E850882AA47
:10500400821251FF94141251F7506B850E82850F52
:1050140083E0C0E074202A1250B6D0E0F005088581
:105024000E82850F83A3E0C0E085080A7420250A58
:105034001250B6D0E0F005089005071250D51222A0
:10504400217C087D0585080A7420250A1250C9129E
:105054001FCD900507E02508F50874FF6E700374F2
:10506400FF6F6012EE24010EEF3400FFE508C394D5
:10507400145003024F27E508601312545A85108216
:1050840085118312544612091879008014E50970B9
:105094000375090A851282851383EEF0A3EFF0A944
:1050A400097402121FCD7F0E0220E085080C7420C3
:1050B400250CF58274053400F583223400F50F8540
:1050C4000E82F58322FA74053400FB120462740222
:1050D40022125D1522A3A31250DF221257A6FDEE61
:1050E400FAEFFB2274EE12200E74FE121FB78C0E20
:1050F4008D0FEA2405F50CEB125CB6750B009005D8
:105104001EE4F0F50AEA2402F508EB3400F5098000
:105114004490051EE0FA900507E0F81251FF941739
:105124001251F7400D90051EE0F87416C3989005CF
:1051340007F01252081222217C087D05741F2AFAF6
:1051440074051250CC121FCD900507E0F890051E8F
:10515400E028F0050AE50C2416F582E50D1250BA94
:10516400E0F8E50AC398507490051EE0C394165005
:105174006BE50AC333F8E433F9E50C28FEE50D3991
:10518400FF851882851983AC82AD838E828F83124A
:1051940052117008750B011257AB8050E4F510F5ED
:1051A400117810122221751007751105781012223A
:1051B4002175100875110578101222217406122029
:1051C40002122238791685088285098312615F12DA
:1051D4001FCDE9F50B700302511580BB7C1E7D05C4
:1051E40085088285098312544612092AA90B740280
:1051F4000256A9E99400C365D03322EA28F8E434BE
:1052040000F9E822E0F51075110078102212569E7C
:105214008A108B11AC10AD11EC4D2274EA12200EE1
:1052240074FC121FB78A0C8B0D8C128D13EA2405A3
:10523400F50AEB12579B750800750900E50A24026C
:10524400F510E50B3400F511740212200285820E6C
:1052540085830F780E122221850A82850B83A3A3EE
:10526400A3A3125CBB122221E50A2405F50EE50B6B
:105274003400F50F780E12222185108285118312D5
:1052840057A1125440120BA67406121FCD8A0E8B1E
:105294000FAE0EAF0FE50C2402F50EE50D3400F54C
:1052A4000F80388882898374FFF005081250AF7428
:1052B400FFF00508900507E0F50C750D00780C1259
:1052C40022217C087D0585080C7420250C1250C908
:1052D400121FCD900507E02508F508EE4F60278ED4
:1052E400828F83A3A3A3E0F9850E82850F831254D2
:1052F40050EE2404125CB3E96027850C82850D838B
:105304001254321257B8E508700302541812545A52
:10531400850E82850F831254461209307900025497
:105324002DE4F514F515781412222175140775155A
:1053340005781412222175140875150578141222A3
:105344002174081220021222387911EEFCEFFD8537
:105354000E82850F8312615F121FCDE9F509709AE1
:10536400850882AA82EA9005077009E02404900562
:105374001FF08025E0F890051FE0F514E82404FCF4
:10538400E43400FDEC65147001ED70811251FF945A
:10539400121251F74003025311850C82850D83E0EC
:1053A400C0E074202A1250B6D0E0F00508850C82C3
:1053B400850D83A3E0C0E01250AFD0E01254758590
:1053C400820C85830D780C1222217404122002129F
:1053D400223885108285118312546C121FCD8A0CD9
:1053E4008B0DAE0CAF0D85080C7420250CF87405DC
:1053F4003400F9EE4F70030252A785188285198391
:10540400E088828983125475A3E0C0E01250AFD0C3
:10541400E00252B5E509700375090A850A82850B15
:10542400831254321257B8A90974040250A7125FA8
:10543400DB851282851383227C1E7D05850A828585
:105444000B8312544A22E0FAA3E0FB2212544A12BC
:105454000B94E9F5092290051FE0F5F0E508849026
:10546400051EF07C1E7D05221250DF120BB274045F
:1054740022F005088518828519832274EC12200E07
:1054840074FE121FB78A088B098C0E8D0FEA24054F
:10549400FEEB3400FF125688EE2418125CB3EA4582
:1054A4000B700302552B12567150291255508A1055
:1054B4008B11EA4511606B7912AC0AAD0B85088239
:1054C40085098312544685108285118312200CE9C4
:1054D400F50A7058E4F50AF50B780A1222218E8237
:1054E4008F83A3A3E0F50A780A122221EE24031283
:1054F4005798780A1222218E828F8312555D120CDE
:10550400CC7406121FCDE9F50A7021850C82850D35
:1055140083E0701F85088285098312544612093678
:105524008011750A0E8009750A018004E50A60037A
:105534001257AB850C82850D83E0600479008002EC
:10554400A90A7402121FCD7F0C0220E085188285FF
:10555400198312544A120CBA221257A6FD850882E6
:1055640085098312544A2274EE12200E74FE121F0F
:10557400B78A088B098C0C8D0DEA2405FEEB3400E8
:10558400FF750E00125688EA450B700302564F123F
:105594005671502C1255508A0E8B0FEA450F604AF3
:1055A4007912AC0AAD0B85088285098312544685AD
:1055B4000E82850F8312200CE9F50E600302565209
:1055C40085088285098312588DAA0AFB12566370D6
:1055D400147AFF7BFF125663606C88828983E50A24
:1055E400F0A3E50BF0750A008007750E0E805F05C9
:1055F4000A900504E0FAE50AC39A504AE50A75F0F0
:1056040017A4FAABF088828983A3A3E02AFAA3E063
:105614003BFB8A828B831257A1EC4D70D2750A171B
:10562400750B00780A122221EEFCEFFD120462745D
:1056340002121FCDEEFCEFFD85088285098312540A
:105644004612093C8014750E098003750E01125F21
:10565400D3850C82850D831257B8A90E0251F2121C
:105664000CAE8A108B11A810A911E84922E5082470
:1056740002F508E5093400F5098A828B83A3A3A304
:10568400E0A2E522851882851983AC82AD838E82DF
:105694008F8312569E8A0A8B0B22E0FAA3E0FB1238
:1056A4000BAC227404121FCD7F0A0220E074EC12AA
:1056B400200E8C108D11EA2405F50CEB125CB675E6
:1056C4000F00EA2402F50AEB12579B850A82F58340
:1056D4001254461261E5700302578D750E008071F5
:1056E400850C82850D83E06401704F8E828F83A3C5
:1056F400A31222388E828F83A3A3A3A3E0F512758D
:1057040013007812122221EE2405F512EF3400F56D
:10571400137812122221125440120CCC7406121F58
:10572400CDE9F50F6014850C82850D83E4F0125FDA
:10573400D38510828511831257B87C177D007900B8
:10574400EEFAEFFB12047A8E828F83E4F0A3F00565
:105754000E900504E0F8E50EC398501EE50E75F0B2
:1057640017A4F8A9F0850882850983A3A312614BC5
:105774001257A1EC4D60030256E485088285098323
:1057840074FFF0A3F0E50F7006125440120942A909
:105794000F02554BF50AEF3400F50B22A31257A65E
:1057A400FD22E0FCA3E0228E828F83125FDB850E54
:1057B40082850F83E8F0A3E9F022C082C0839005BC
:1057C40000E06A7003A3E06B70067A007B05800436
:1057D4007A007B00024B0074F712200E7F00EF75F5
:1057E400F003A4F8A9F0EC28F8ED39F9888289834C
:1057F400E06A7003A3E06B7006E8FAE9FB800B0F24
:10580400EFC3940240D87A007B007F010220E07449
:10581400F612200E125DC470067A007B008007A386
:10582400A3A3A3125446025E8574F212200EE9FE6D
:10583400740E12200212588D7410122002125CF59C
:105844008C828D83E06402703BA3125FD7888289C7
:1058540083E0F50CA3E0F9A80C74026870037429C2
:10586400697021750C02750D00780C1222217808DC
:10587400122221780A122221EEF9120CF074061277
:105884001FCD80027901025EF5E0F50AA3E0F50B75
:105894002274E812200E74FB121FB7E98518828562
:1058A4001983F08A168B178C0E8D0F741F12200229
:1058B400125CF5742112200212588D7423122002F6
:1058C400125CDF7510008C828D83A3A3A3E0A2E495
:1058D400502A741D1220021255568A828B83E58247
:1058E400458370030259A1790AAC0EAD0FAA16AB19
:1058F4001712200CE9F51060030259A4850E828565
:105904000F83E064026003025C5AA3125FD7850828
:1059140082850983A3858212858313E50E2406F507
:105924000CE50F125CB688828983E0FAA3E0F9EAF9
:105934002400F514E439F51578141222AB010000A3
:10594400280128695907000228405A0328B0590041
:10595400296A5B0129925B0229395B03296A5B048A
:1059640029FB5B5A5CEE4F703E850C82850D8312D9
:105974005CD0FAE9FB8A828B83E0850A82850B83FB
:10598400125D0C1222218A828B83A31257A6FDAAD0
:1059940008AB091204627402121FCD800375100E45
:1059A400A910740502613975100B80F4EE4F70F77D
:1059B400850A82850B837401F0125CE58508828573
:1059C4000983F07C007D00850E82850F83A3A3A349
:1059D400A3E02401FAA3E03400FB120BACEA4B6011
:1059E400418A828B83E02402F8850A82850B83E056
:1059F40028F0EA2404F8EB3400F988828983E085EE
:105A04001282851383125D1E125D0C1222218A827A
:105A14008B831257A0E5082403FAE5093400FB023E
:105A24005997850A82850B83E02404F07C047D0069
:105A34007900AA12AB1312047A0259A4EE4F600340
:105A44000259AB125CE5FEA3E0FF850A82850B8355
:105A54007404F0EE850882850983F0EF851282854F
:105A64001383F07403122002AC82AD83EEFAEFFBD1
:105A7400125DB27003025B168A828B83A3A3125C4D
:105A8400DB740112200285820E85830F780E1222A8
:105A94002174051220021222387CFF7DFF120BB202
:105AA4007404121FCD8B0FEA450F7033850C828569
:105AB4000D83125CBB122221850C82850D83A312F7
:105AC40022387C027D007A7B7B901209DE740412FA
:105AD4001FCDE9700A740112200274FFF0A3F08E46
:105AE400828F83E064027034750C02750D00780CAB
:105AF4001222218E828F831257A0E5082404FAE52E
:105B0400091250CC121FCD850A82850B83E0240232
:105B140080097401122002EEF0A3EFF07401122048
:105B240002125CCCF07401122002A3125CC4A3A381
:105B3400A3F00259A4EE4F60030259AB850C828591
